:100000000C9444030C948B030C948B030C94C52424
:100010000C948B030C948B030C948B030C948B0328
:100020000C948B030C948B030C94271F0C94E31EED
:100030000C9424230C948B030C948B030C948B034F
:100040000C948B030C948B030C948B030C948B03F8
:100050000C948B030C9400230C948B030C948B0353
:100060000C948B030C948B030C948B030C948B03D8
:100070000C948B030C948B030C948B030C948B03C8
:100080000C948B030C948B030C948B030C948B03B8
:100090000C948B030C948B030C948B030C948B03A8
:1000A0000C948B030C948B030C948B0329002C0071
:1000B000000018002C00000004002C0000001500B7
:1000C0002C0000001A002C00000006002C0000008C
:1000D0000A002C0000000C002C00000011002C0075
:1000E000000007002C00000009002C000000120096
:1000F0002C00000008002C0000000B002C00000069
:1001000017002C00000016002C0000000001010167
:1001100001010101010102020202020202020203C4
:100120000303030303030304040404040404050594
:100130000505050606060606070707070708080857
:1001400008090909090A0A0A0B0B0B0C0C0C0D0D06
:100150000D0E0E0E0F0F0F1010111111121213139E
:100160001414151516161717181819191A1A1B1B17
:100170001C1D1D1E1E1F2020212222232424252673
:1001800026272829292A2B2C2D2D2E2F30313232AB
:10019000333435363738393A3B3C3D3E3F404142B7
:1001A000434445464748494A4C4D4E4F505153549D
:1001B000555658595A5B5D5E5F6162646566686951
:1001C0006B6C6D6F7072737577787A7B7D7E8082D1
:1001D000838587888A8C8E8F91939596989A9C9E1A
:1001E000A0A2A3A5A7A9ABADAFB1B3B5B7BABCBE2A
:1001F000C0C2C4C6C9CBCDCFD1D4D6D8DBDDDFE2F7
:10020000E4E7E9EBEEF0F3F5F8FAFDFF000000009B
:1002100000000000000000000000000000000000DE
:1002200000000000000000000000000000000000CE
:100230007E0F00D4FFFFFFC7000000780000000021
:10024000000000002A2B2800000000000000000031
:100250000000000000000029000000002C1E3420D7
:10026000212224342627252E362D3738271E1F20FD
:100270002122232425263333362E37381F04050642
:100280000708090A0B0C0D0E0F1011121314151686
:100290001718191A1B1C1D2F3130232D3504050684
:1002A0000708090A0B0C0D0E0F1011121314151666
:1002B0001718191A1B1C1D2F3130354C2B00140038
:1002C0001A00080015001700E000040016000700DF
:1002D00009000A00E1001D001B00060019000500CE
:1002E000000000000000E30001512C002A00130070
:1002F00012000C0018001C00340033000F000E0028
:100300000D000B00290038003700360010001100E6
:10031000000000000000E6000251280013501E00FB
:100320001F00200021002200E000C35CC65CCA5C04
:10033000C85C0000E100C45CC75CCB5CC95C000029
:10034000000000000000E30001002C002A0027004C
:100350002600250024002300000000004F0052006A
:1003600051005000000000000000000000000000EC
:10037000000000000000E600010028002B001E0223
:100380001F02200221022202E00000000000000003
:1003900000000000E100000000000000000000007C
:1003A000000000000000E30001002C002A002702EA
:1003B00026022502240223023500310030002F00DE
:1003C0002E002D003502310230022F022E022D02A6
:1003D000000000000000E6000100280029000900DC
:1003E000070011000C000A002A46160017000B0037
:1003F00008001200025506001A001500040018003B
:10040000000000000000055404542C0029000900DD
:10041000070011000C000A002A46160017000B0006
:1004200008001200025506001A001500040018000A
:10043000000000000000055404542C002B002F0085
:100440002F0226021F02230231003302330038023A
:100450001E02380035023000300227022402250235
:100460000000000000000000000000002B002F0032
:100470002F0226021F02230231003302330038020A
:100480001E02380035023000300227022402250205
:100490000000000000000000000000002E0023000B
:1004A00024002500260037002E021E001F00200019
:1004B000210022002D002002210222022700360006
:1004C0000000000000000000000008552E0023007E
:1004D00024002500260037002E021E001F002000E9
:1004E000210022002D0020022102220227003600D6
:1004F0000000000000000000000008551050B60089
:100500004A0052004D00B70000002B05500051007A
:100510004F004C0000001D011B010601190104558C
:10052000000000000000025501552A011050B600DD
:100530004D0052004A00B70000002B054F0051004B
:1005400050004C0000001D011B010601190104555B
:10055000000000000000025501552A0105010902B2
:10056000A10185020901A100050919012908150049
:1005700025019508750181020501093009311581B0
:10058000257F95027508810609381581257F95011B
:1005900075088106050C0A38021581257F950175BD
:1005A000088106C0C005010980A101850319012A3F
:1005B000B700150126B700950175108100C0050C24
:1005C0000901A101850419012AA002150126A00232
:1005D000950175108100C005010906A101050719E3
:1005E000E029E7150025019508750181029501753F
:1005F0000881010507190029FF150026FF0095064F
:1006000075088100050819012905950575019102F4
:10061000950175039101C009023B00020100A0FA97
:100620000904000001030101000921110100012258
:1006300040000705810308000A09040100010300C6
:100640000000092111010001227B0007058203201F
:10065000000A1201100100000008534601000100C9
:10066000010200010C0343006F0072006E00650080
:100670000000100366006F006F00730074006100DB
:100680006E0000000403090411241FBECFEFDAE05E
:10069000DEBFCDBF04B603FE27C080915F069091F8
:1006A0006006A0916106B09162068730904BA7402A
:1006B000B04BD1F410925F06109260061092610662
:1006C0001092620614BE84B7877F84BF0FB6F89479
:1006D000A89580916000886180936000109260000E
:1006E0000FBEE0E0F8E3099511E0A0E0B1E0E0EB37
:1006F000F2E502C005900D92AA3BB107D9F726E0BA
:10070000AAEBB1E001C01D92AF35B207E1F70E943C
:10071000FE1F0C941E290C940000E8EDF0E080818F
:100720008E7F80831092E2001092DA001092E10036
:10073000A0EEB0E08C9181608C9380818F77808374
:1007400019BCA7EDB0E08C918E7F8C9380818F7E59
:1007500080831092300608952091E4003091E500E6
:1007600095E6A9012091EC00822F817020FF06C040
:100770008091E80080FF06C080E008952091E800A5
:1007800022FD1AC080913D06882389F0853089F0CA
:100790008091EB0085FD0FC02091E4003091E500D1
:1007A00042175307F9F29150E1F684E0089582E090
:1007B000089583E0089581E00895EF92FF920F93EA
:1007C0001F93CF937C018B010E94AC03C82F811132
:1007D00017C08091E80085FD0BC08091E8008E77FE
:1007E0008093E8000E94AC03882399F3C82F08C0C7
:1007F000F70181917F018093F1000150110949F7C0
:100800008C2FCF911F910F91FF90EF9008958091C1
:100810003F0687FF13C08091E80082FF06C08091E9
:10082000E8008B778093E80004C080913D06811139
:10083000F2CF089580913D068823D9F38091E80096
:1008400080FFF8CF8091E8008E77ECCF982F9093BF
:10085000E900242F762F50E0891731F07091EC00D9
:100860002091ED005091F00021FD07C09F5F97306F
:1008700071F78093E90081E008953091EB003E7FAD
:100880003093EB003091ED003D7F3093ED003091DF
:10089000EB0031603093EB007093EC002093ED009F
:1008A0005093F0002091EE0027FDE0CF80E0089506
:1008B000CF92DF92EF92FF920F931F93CF93DF932C
:1008C000C8EDD0E088818F7E8883E7EDF0E08081FD
:1008D0008160808384E082BF81E0809330068881DC
:1008E0008E7F888302EE10E0F80110821092DA0009
:1008F00081EEC82ED12CF601108288818F778883F3
:1009000088818068888388818F7D888319BC109254
:100910003D0610923E0610923C0610923B0690EE69
:10092000E92EF12CF70180818B7F808388818160A3
:10093000888342E060E080E00E942604F601808126
:100940008E7F8083F80180818160808380818860D0
:100950008083F70180818E7F808388818061888396
:10096000DF91CF911F910F91FF90EF90DF90CF908B
:100970000895FC01809145069091460686179707D9
:10098000A0F06115710529F49091E8009E7790938D
:10099000E80090E06115710551F4911108C0809153
:1009A000E80082FF34C080E00895BC01F2CF80915E
:1009B0003D068823C1F18530C1F18091E80083FDB7
:1009C00030C08091E80082FDEACF8091E80080FF8E
:1009D000E1CF8091F3002091F200382F611571056D
:1009E00019F02830310558F091E02830310509F030
:1009F00090E02091E8002E772093E800CBCF819102
:100A00008093F100615071092F5F3F4FE7CF8091D4
:100A10003D06882341F0853041F08091E80083FF56
:100A2000BECF81E0089582E0089583E0089580E0DC
:100A300008958091320608959C014FB7F8948091F3
:100A4000EE059091EF05A091F005B091F1054FBF33
:100A5000821B930B08952FB7F8946091EE05709167
:100A6000EF058091F0059091F1052FBF08952FB704
:100A7000F8948091EE059091EF05A091F005B0916A
:100A8000F1052FBF08959C01FC0132969FEF80E095
:100A90004191461751F09F3F19F4411101C0982F21
:100AA0008F5F8630A9F79F3F09F40895290F311D04
:100AB00097FD3A95F901628308958091E9058111C6
:100AC0001092E905089580959091E80598239093F8
:100AD000E80508958091E7059091E805892B9091AC
:100AE000E605892B8093BC019091E905992391F04B
:100AF000892B8093BC0120E08EEB91E0FC013191C9
:100B0000CF0131112F5FF1E0843C9F07B9F721112C
:100B10000E945D05E0910F06F0911006309731F0CC
:100B20000280F381E02D8CEB91E009940895E92F88
:100B3000EE0FE90FEE0F8E0F982F97708695869522
:100B4000869525E0829FF0011124E953FA4F50E089
:100B500040E080E0219130E0092E02C036952795D3
:100B60000A94E2F721703327042E01C0220F0A9461
:100B7000EAF7822B4F5F5F4F4530510559F70895D3
:100B8000E92FEE0FE90FEE0F8E0F982F977041E0CF
:100B900001C0440F9A95EAF786958695869595E06B
:100BA000899FF0011124E953FA4F30E020E070E012
:100BB0005191DF011197CB01022E02C096958795C6
:100BC0000A94E2F7817081958527842385278C9389
:100BD0002F5F3F4F2530310559F708952091C60505
:100BE0009091950556E0291302C080E0089530E009
:100BF000529FF001539FF00D1124EA56FA4F718174
:100C0000761306C07081781303C07281741304C018
:100C10002F5F3F4F2770E7CF81E008958091C60591
:100C200090919505981301C008958F5F8770FACF52
:100C3000882321F00E9463050C946A050895882397
:100C400039F09091E805982B9093E8050C946A058B
:100C50000895882341F080959091E705892380933A
:100C6000E7050C946A050895882339F09091E7050B
:100C7000982B9093E7050C946A05089520916D02D6
:100C800030916E022817390771F090936E028093AD
:100C90006D02E0910F06F0911006309721F000846C
:100CA000F185E02D0994089520916B0230916C023A
:100CB0002817390771F090936C0280936B02E091D2
:100CC0000F06F0911006309721F00680F781E02D95
:100CD00009940895E0910F06F0911006309721F0E5
:100CE0000190F081E02D099480E00895FA018111CE
:100CF00001C0FB01099480910906982F9E7F39F469
:100D0000809109068170826080930906089584307D
:100D1000B8F708950E9437059C01909122068091B2
:100D20002306982B21F030931F0620931E069091E6
:100D3000240680912506982B21F030931C062093E1
:100D40001B06E0910F06F0911006309749F082E003
:100D5000809320060480F581E02D80E296E00994DE
:100D6000089590E080E00E94540690E080E00E94A8
:100D70003E061092E8051092E6050E946A0586E09C
:100D8000E0E2F6E0DF011D928A95E9F710921D0678
:100D900010921A0610928E050C948A066093EA054A
:100DA0007093EB058093EC059093ED050C94B106E0
:100DB000409122068D3E59F48091230687FF0DC095
:100DC0001092230641110BC010921D0608C08E3EE2
:100DD00081F48091230618169CF3442381F08091BE
:100DE000240690912506892B09F05AC010921A0604
:100DF00008958F3E49F447FFF0CF1092220680916C
:100E000023068111ECCFE0CF803F19F41416ACF328
:100E1000E4CF90912406893F29F41916F4F6109234
:100E20002406DBCF8A3F19F497FFD7CFF8CF9091F4
:100E300025068B3F29F497FFD0CF10922506CDCF02
:100E40008C3F19F41916CCF3C8CF9FE0980F983057
:100E500090F4815F990B21E030E0B90102C0660F88
:100E6000771F8A95E2F7CB0180959091210689231F
:100E700080932106B2CF8D3F31F480918E058E7F15
:100E800080938E05AACF8E3F21F480918E058D7FB1
:100E9000F7CF8F3F09F0A1CF80918E058B7FF0CFE8
:100EA00008958823F1F19CEF980F913A78F4EEEBD6
:100EB000F1E024EC31E09191891303C0DF01119737
:100EC0001C922E173F07B9F70C946A0590E2980F11
:100ED000983088F4877021E030E0A90102C0440F07
:100EE000551F8A95E2F7CA0180959091E7058923FD
:100EF0008093E705E9CF9BE5980F933020F490E0CD
:100F000080E00C94540698E5980F973120F490E017
:100F100080E00C943E068D3E20F00E94D8060C9492
:100F20008A06089580918E0580FD16C081FD16C049
:100F300082FD16C080911A068823A1F0883280F4C1
:100F400028E0829FC001112468E270E00E94E6253B
:100F5000862F672B39F0089582E0089584E0089584
:100F600088E0089581E0089580918E0580FD14C089
:100F700081FD14C082FD16C080911D06882381F07A
:100F8000843180F422E3829FC001112464E170E087
:100F90000E94E625862F08958CE0089589E1089542
:100FA00085E0089582E308958D3E31F40E94B407F0
:100FB00081958093230608958E3E19F40E94B4070C
:100FC000F8CF8F3E31F40E94B407819580932206BA
:100FD0000895803F19F40E94B407F8CF893F29F49F
:100FE0000E9492078093240608958A3F21F40E946C
:100FF00092078195F7CF8B3F31F40E94920781953C
:101000008093250608958C3F19F40E949207F8CF2B
:101010009FE0980F983070F4815F990B21E030E0E9
:1010200001C0220F8A95EAF780912106822B8093D6
:10103000210608958D3F31F480918E058160809363
:101040008E0508958E3F21F480918E058260F7CF42
:101050008F3FB9F780918E058460F1CFCF93C82F71
:10106000882309F456C08CEF8C0F813AF8F4EEEB2C
:10107000F1E084EC91E0DF012D91C21759F08A175D
:101080009B07D1F76C2F8CEB91E00E944305CF9129
:101090000C946A052191C21303C0DF0111971C92C1
:1010A0008E179F07B9F70E946A05ECCF80E28C0F7C
:1010B000883068F4C77021E030E001C0220FCA9583
:1010C000EAF78091E705822B8093E705E0CFEBE517
:1010D000EC0FE33040F4F0E0E558FE4F808190E003
:1010E000CF910C945406E8E5EC0FE73150F4F0E0B2
:1010F000EE0FFF1FE258FE4F80819181CF910C943B
:101100003E06CD3E30F08C2F0E94D407CF910C9438
:101110008A06CF9108950F931F93CF93DF938C018D
:10112000EB018091560182FF2DC08B7F8093560189
:1011300080918B052091890530918A05AB01421B76
:10114000530B20915401309155014217530778F405
:101150000E942E08809156018D7F809356018091C8
:101160008B050E94510782E00E94630515C0909193
:10117000E80592609093E8050E942E088091560140
:101180008260EBCF802F0E94510780918B05909158
:101190008C050817190739F30E946A05D0938A0550
:1011A000C0938905DF91CF911F910F910895F89415
:1011B000E82FE295EF70F0E031A1282F2F7081E049
:1011C00090E001C0880F2A95EAF7982F9095932315
:1011D00091A392A1892B82A37894089590910406FB
:1011E00092FF06C0282F28712830F9F4877F846089
:1011F00093FF06C0282F28712831F1F4877E84617F
:101200002091050620FF06C0382F38713830D9F4F8
:10121000877F816021FF06C0282F28712831D1F4F3
:10122000877E816194FD877E0895282F2471243064
:10123000F9F68B7F8860DCCF282F2471243101F7E9
:101240008B7E8861DDCF382F3171313019F78E7F79
:101250008860E0CF282F2171213121F78E7E8861AF
:10126000E1CFCF93DF93972F70E026E0929F600D40
:10127000711D1124FB0130E3839FE00DF11D11244A
:10128000EE0FFF1FE454FD4FC591D491CE01C2383B
:10129000D105B9F1E8F5C133D10509F499C050F58C
:1012A000C932D10509F48DC0CA32D10509F497C0FD
:1012B000C11521E5D20708F0BFC0C11530E5D3073D
:1012C00008F016C1C83ED10508F09DC0C13ED10549
:1012D00068F5C83AD10508F089C0C53AD10508F0CB
:1012E000FFC0C130D10511F1209709F443C0249704
:1012F000E8F440C0C533D10509F45CC0C933D10559
:10130000B9F620910406237089F080EE90E00EC0BB
:10131000C33ED10591F168F4C03ED105F9F0C23E5B
:10132000D10531F62091040622FD20C0DF91CF9136
:101330000895C63ED10561F1C73ED10581F1C43E95
:10134000D10509F0B5CF2091050621FFEFCF80919F
:10135000040684FD0FC087EE90E0E8CF20910406DC
:1013600020FD12C13091050630FFE0CF83EE90E002
:1013700024FFDCCF90E080E0D9CF2091040622FD4D
:1013800006C13091050630FDC0CF24FFCFCFF2CF8C
:101390002091040623FFCACF24FDECCFDCCF20919F
:1013A000040623FDF7C03091050631FFEECF84EE31
:1013B00090E0BCCF2091040625FFB8CF89E290E0F1
:1013C000B5CF2091040625FFB1CF85E390E0AECFE5
:1013D0002091040626FFAACF8AE290E0A7CF2091B1
:1013E000040626FFA3CF81E390E0A0CFCF3BD10539
:1013F00008F6C85AD0E0CC0FDD1FC258DE4F8881F6
:101400009981946493CFC11520E2D20760F4C1158D
:1014100031E0D30708F08ACFCE019065CD3ED105EB
:1014200008F084CFA7CFC11580E4D80708F4A2CF75
:10143000CE019F70906A7ACFC11595E5D90710F556
:10144000C11524E5D20708F088C0C11533E5D307DC
:1014500008F06FC0C11582E5D80708F465C09E0189
:101460002370332781E090E002C0880F991F2A95EE
:10147000E2F7C695C69520E2C29FE00111248C2BAD
:101480009D2B50C0C11599E5D907A0F4C11528E5D9
:10149000D20708F067C0C11536E5D30708F06ACF58
:1014A0008C2F0E94EE0890E0982F882788279F7144
:1014B00090623CCFC1158AE5D80708F458C0CE0128
:1014C00090568115904208F055CF8D2F8F710E9454
:1014D000EE0890E0982F882788279F718C2BE8CF03
:1014E000C55AD0E0C558DE4F888190E090641ECF89
:1014F0009E01E4E036952795EA95E1F723708C2F5D
:1015000086958695837030E2839FC0011124922BCB
:10151000C37021E030E002C0220F331FCA95E2F70A
:10152000822B932B9C6802CF9C2F8827816F906A17
:10153000FDCE9E012370332781E090E002C0880F2A
:10154000991F2A95E2F7C695C69530E2C39FE00140
:1015500011248C2B9D2B9A68E9CE9C2F8827846FB1
:10156000906AE4CE9C2F8827806F906ADFCE8C2F04
:101570008F700E94EE0834E0D695C7953A95E1F752
:10158000CF709C2F9069D2CE89E390E0CFCE82EECF
:1015900090E0CCCE86EE90E0C9CEBF92CF92DF92A3
:1015A000EF92FF920F931F93CF93DF938C01C09024
:1015B0000006D0900106E0900206F09003068091AC
:1015C000EA059091EB05A091EC05B091ED05C82AD4
:1015D000D92AEA2AFB2ACFE1D0E0BC2ED701C601E6
:1015E0000C2E04C0B695A795979587950A94D2F7C7
:1015F00080FD0EC0219788F7B12C8B2DDF91CF9104
:101600001F910F91FF90EF90DF90CF90BF900895C2
:10161000B8018C2F0E943109019761F3EECFCF936F
:10162000DF93EC010E94CD0ABE01DF91CF910C94B3
:1016300031090E940F0B292F2F7092959F709250A5
:101640009E3078F4E92FF0E0E05EF64D0C94FA2538
:10165000803F19F020F4883E20F481E00895843F13
:10166000E1F380E00895883EC0F3813FD1F7F5CFE4
:10167000822F8695869586950895CF93DF939C015A
:101680003A9521153F4168F5EC01CC27D170DC017A
:10169000AA27B270AC01442754709C0122273870ED
:1016A00094FF11C080E1CD2B09F480E0AB2B09F051
:1016B0008062452B09F08064232B09F08068FB01D0
:1016C000DF91CF91099481E0CD2B09F480E0AB2B21
:1016D00009F08260452B09F08460232B81F3886038
:1016E000EECFDF91CF910895CF93DF93EC01805E31
:1016F0009109089720F06FE176E0209711F464E3F8
:1017000076E0CE010E943D0B8C2FDF91CF910C949F
:101710002E08CF9390918205992321F0811116C054
:1017200010928205CF910895EC2FF0E0EE0FFF1F8D
:10173000EE58FA4F808191810E94740B0E946A05D5
:10174000CF5F80918205C81778F3EACFC0E0F9CF68
:10175000109283051092580110928505109284050D
:1017600081E00C94890BCF92DF92EF92FF926B0194
:101770007C010E94A80BC114D104E104F10471F0B2
:10178000D701C60123E0B695A795979587952A9529
:10179000D1F780FF03C081E080935801C09200061A
:1017A000D0920106E0920206F0920306FF90EF90BD
:1017B000DF90CF900C94B1060F931F9341E050E05F
:1017C00060E070E004C0440F551F661F771F8A95C4
:1017D000D2F7CB01BA0160957095809590950091F4
:1017E0000006109101062091020630910306602345
:1017F0007123822393231F910F910C94B30B90912B
:10180000E505809589238093E505282F277071F4DD
:10181000282F082E000C330B9217130639F08595EC
:10182000859585950E94DC0B1092E50508950F9330
:101830001F9341E050E060E070E004C0440F551F8A
:10184000661F771F8A95D2F7809100069091010656
:10185000A0910206B09103068A019B01082B192B67
:101860002A2B3B2BC901B8011F910F910C94B30B8C
:1018700060E070E0CB010C94B30BCF9384E090E078
:101880000E943726C82F81E290E00E943726982FC9
:101890008C2FCF910895CF93DF9300D00F92CDB7C7
:1018A000DEB790913D06943019F589837B836A8376
:1018B00082E08093E9008FEF9091E800815095FDE0
:1018C00006C095ED9A95F1F700008111F5CF809152
:1018D000E80085FF0DC050E040E063E070E0CE011D
:1018E00001960E94DD038091E8008E778093E800E6
:1018F0000F900F900F90DF91CF910895BC0184E07D
:101900000C944B0CBC0183E00C944B0C9C0182E0CA
:101910008093E9009FEF8091E800915085FD06C01B
:1019200085ED8A95F1F700009111F5CF8091E800DF
:1019300085FF0CC050E040E066E070E0C9010E9405
:10194000DD038091E8008E778093E8000895CF93BF
:10195000DF93EC0181E08093E9008FEF9091E80044
:10196000815095FD06C095ED9A95F1F70000811123
:10197000F5CF8091E80085FF14C050E040E068E0BA
:1019800070E0CE010E94DD038091E8008E778093A5
:10199000E80088E0FE01A3E3B6E001900D928A958D
:1019A000E1F7DF91CF9108951F93CF93DF93182F25
:1019B000D0E0C0E0893311F4C0E5D0E0812F0E946F
:1019C0002E08209731F4812FDF91CF911F910C9435
:1019D00051078FE99FE00197F1F700C000002197C0
:1019E000F0CF0F931F93CF93DF93C62FD42F022FE7
:1019F000FC0182818823A1F0609349060E9437058B
:101A00009093480680934706C77081E001C0880F15
:101A1000CA95EAF7DF91CF911F910F910C9434068C
:101A200080914906681335C0809147069091480619
:101A30000E941C058331914060F510E21D0FCD1707
:101A4000B9F080E28C0F883040F4C77081E001C0AB
:101A5000880FCA95EAF70E942906183048F481E0F9
:101A60009D2F977001C0880F9A95EAF70E9434065F
:101A7000802F0E94D40C183098F4D77081E001C0F8
:101A8000880FDA95EAF7DF91CF911F910F910C94AF
:101A90002906C77081E001C0880FCA95EAF7F3CF25
:101AA000DF91CF911F910F9108958091090680FDDC
:101AB0000AC0E9ECF1E0118210821282339652E002
:101AC000EB36F507C1F7539A3BB1377F2BB128604E
:101AD0004FB7F89489EC91E0FC015191CF0168E097
:101AE0002BB9000000C057FF3BB9550F000000C0E4
:101AF00000C000C03BB900C06A9591F7F2E08B3698
:101B00009F0751F74FBF8FE594E00197F1F700C0B1
:101B1000000008958091C801811111C08091D80002
:101B200080618093D8008AE18A95F1F700C0909196
:101B3000D900892F817090FF82E08093C80181E0F5
:101B40009091C801913009F080E00895CF92DF9222
:101B5000EF92FF926B017C010E947B06B701A60108
:101B600088E090E0FF90EF90DF90CF900C945D269E
:101B70008F929F92AF92BF92CF92DF92EF92FF929D
:101B80000F931F93CF93DF93D82FC62F142F822E3E
:101B90000091090600FFCDC0E02FE695F0E0E75880
:101BA000FE4F808180930606802F8E7F8230E1F485
:101BB000E42FF0E0E45FFE4F611146C02491F22F64
:101BC000E22F00FF11C0A9ECB1E08BE692E0119684
:101BD000EC9311972C931296FC93129713968A17F5
:101BE0009B07A9F70E94550D80910A068D1308C026
:101BF00080910B068C1304C080910C06811729F08C
:101C000080910806826080930806D0930A06C093EC
:101C10000B0610930C06882009F48BC0609109060E
:101C200070910A0680910B0690910C06DF91CF917E
:101C30001F910F91FF90EF90DF90CF90BF90AF90EA
:101C40009F908F900C94A60DE62EF12CE4919E2E81
:101C5000CE2ED12C26E0D29FC00111242FEF30E0F0
:101C6000B9010E94D2258D2F90E0880F991FF5E5CC
:101C7000F69FA001F79F500D1124841B950BB82EE1
:101C8000BB0CB80EA9014E195F094C9DC0014D9DBA
:101C9000900D5C9D900D1124F92FCB9DA001112476
:101CA000452F5527D901A41BB50BAC9DA001AD9DB7
:101CB000500DBC9D500D1124D901AB19B1095D0126
:101CC000AE9CD001AF9CB00DBE9CB00D1124AB2FCB
:101CD000BB272A1B3B0B2C9DD0012D9DB00D3C9D9D
:101CE000B00D11242B2F62307105A1F050F4611555
:101CF000710509F466CF6130710581F0292FF52F48
:101D000060CF6430710569F080F06630710509F4C8
:101D100058CFF4CF2E2FE92FFB2F53CF2E2FE52FA7
:101D200050CF292FFE2FEB2F4CCFE92FF92D252F48
:101D300048CFDF91CF911F910F91FF90EF90DF90EF
:101D4000CF90BF90AF909F908F900895E9E0F6E01C
:101D5000438121E1421B08F440E021E0628181815E
:101D60000C94B80DE9E0F6E0438121E1420F08F45C
:101D70004FEF21E0628181810C94B80DE9E0F6E03B
:101D8000628121E1621B08F460E021E043818181EE
:101D90000C94B80DE9E0F6E0628121E1620F08F4ED
:101DA0006FEF21E0438181810C94B80DE9E0F6E00A
:101DB000818121E04381628188500C94B80DE9E073
:101DC000F6E0818121E043816281885F0C94B80D47
:101DD00080910D06882319F0815080930D06609143
:101DE000090670910A0680910B0690910C060C94DE
:101DF000A60D80910D06833018F48F5F80930D0639
:101E00006091090670910A0680910B0690910C066C
:101E10000C94A60D8091090680FF1EC0817082601F
:101E200080930906809108068160809308066623E6
:101E300051F06091090670910A0680910B0690910D
:101E40000C060E94A60D20E040910C0660910B0646
:101E500080910A060C94B80D089580910906869524
:101E6000815009F481E061E00C940A0F61E081E0A7
:101E70000C940A0FE9E0F6E083E0808311828FEF93
:101E8000828383831482A6E0B6E012968C91129727
:101E9000836012968C9360817181828193810C940E
:101EA000A60D6BEE7EEF90E080E00E94692660E078
:101EB00082E090E00E944B2660E083E090E00E9488
:101EC0004B261092EA051092EB051092EC05109249
:101ED000ED0560E084E090E00E944B2660E081E246
:101EE00090E00E944B2660E085E090E00E944B2647
:101EF00060E086E090E00E944B266FEF87E090E084
:101F00000E944B2640E050E0BA0188E090E00E9439
:101F10005D2660E08DE090E00E944B2640E050E0BE
:101F2000BA0188E190E00E945D2660E087E190E0E0
:101F30000E944B2640E050E0BA018CE190E00E9404
:101F40005D2660E080E290E00E944B2640E050E099
:101F5000BA0188E190E00E945D2640E050E0BA01BD
:101F60008FE090E00E945D2640E050E0BA0183E1FE
:101F700090E00C945D261092E705EEEBF1E086E030
:101F8000DF011D928A95E9F70C94B1061F93CF9358
:101F9000DF93CDB7DEB7AA970FB6F894DEBF0FBEBA
:101FA000CDBF8FE396E02091F100FC012193CF019A
:101FB000F6E087349F07B9F780914006833009F433
:101FC0006FC0B8F4813009F446C0823009F4B0C063
:101FD0008091E80083FF7BC280913F06909140068C
:101FE0009A3008F074C2E92FF0E0E25DF64D0C94EF
:101FF000FA258A3009F48BC08B3009F46EC0893021
:1020000039F780913F06813219F78091430690910C
:1020100044060297E8F68091E800877F8093E80005
:102020008091E80082FF37C09091F3008091F20028
:10203000029729F48091F1008B7F813021F4809107
:10204000F100809332068091E8008B778093E8005E
:102050000E940704BDCF80913F06813A09F0B8CFB6
:102060008091E800877F8093E800809143069091FB
:102070004406892B61F468E083E396E070E00E94F7
:10208000B9048091E8008B778093E800A1CF60E0ED
:1020900090E080E0F3CF80913D068111C1CF98CFD1
:1020A00080913F06813A09F093CF80914306909149
:1020B0004406892B09F08CCF8091E800877F8093BC
:1020C000E8008091E80080FFFCCF8091630180935D
:1020D000F1008091E8008E77B9CF80913F06813280
:1020E00009F076CF8091430690914406892B09F040
:1020F0006FCF8091E800877F8093E8000E940704FB
:1021000080914106809363010E94BB0F61CF809153
:102110003F06813209F05CCF8091E800877F809391
:10212000E8000E940704809142068093310650CF58
:1021300080913F06813A09F04BCF8091E800877F7C
:102140008093E8008091E80080FFFCCF8091310609
:10215000BECF803899F0823809F0B9C1809143062A
:102160008F70873008F0B3C18093E9008091EB0055
:1021700085FB882780F91092E90006C080913B0614
:1021800090913C06911182609091E800977F909326
:10219000E8008093F1001092F1008091E8008E77C2
:1021A00092C1882309F480C1823009F090C18091E6
:1021B0004106811183C1809143068F702FEF280F54
:1021C000263008F084C18093E9002091EB0020FFC5
:1021D00075C1933031F48091EB0080628093EB0005
:1021E0006DC19091EB0090619093EB0021E030E0A5
:1021F00001C0220F8A95EAF72093EA001092EA00C4
:102200008091EB008860EACF811161C11091410695
:102210001F778091E3008078812B8093E300809189
:10222000E800877F8093E8000E9407048091E8001F
:1022300080FFFCCF8091E30080688093E30082E020
:10224000111183E080933D0642C18058823008F02E
:102250003EC180914106909142068C3D23E0920759
:10226000A1F583E08A838AE289834FB7F894DE017F
:10227000139620E03EE051E2E32FF0E05093570048
:10228000E49120FF03C0E295EF703F5FEF708E2F67
:1022900090E0EA30C0F0C7968D939D932F5F243174
:1022A00059F74FBF8091E800877F8093E8006AE28A
:1022B00070E0CE0101960E94B9048091E8008B770E
:1022C0008093E80004C1C096E7CF40914306509147
:1022D0004406292F33272330310509F444C078F50B
:1022E0002130310509F46FC08BE390E0E7E1F6E0BF
:1022F0002230310509F0EBC02091E800277F2093C0
:10230000E80020914506309146068217930708F4AD
:102310009C0140E02115310509F064C0411162C003
:102320008091E80082FDC9CF80913D06882329F283
:10233000853019F28091E80083FFF2CFBECF2132C1
:102340003105A9F12232310509F0C1C0411551050D
:1023500009F443C04130510509F0B9C08BE790E062
:10236000ECE5F5E0C9CF992781309105C1F00097E0
:1023700059F0029709F0ABC0E4E6F6E0E4918E2F45
:1023800090E0E4E6F6E007C0E4E8F6E0E4918E2FA2
:1023900090E0E4E8F6E0009709F499C0ADCFE2E7F9
:1023A000F6E0E4918E2F90E0E2E7F6E0F4CF4115FD
:1023B000510571F04130510509F089C089E090E084
:1023C000E2E4F6E099CF82E190E0E2E5F6E094CF36
:1023D00089E090E0E9E2F6E08FCF80E490E0E7ED7D
:1023E000F5E08ACF80913D06882309F466CF8530D9
:1023F00009F463CF8091E80083FD5FCF8091E8000E
:1024000082FD8ECF8091E80080FF84CF9091F30011
:102410008091F2002115310519F08830910550F0B6
:1024200041E0089709F040E08091E8008E778093C2
:10243000E80070CF44914093F1003196215031096A
:102440000196E8CF803809F042C08091E800877F8C
:102450008093E80080913E068093F1009ECE81112A
:1024600036C010914106123090F58091E800877FC8
:102470008093E80010933E060E940704112311F098
:1024800084E005C08091E30087FDFACF81E080936E
:102490003D0642E061EC81E00E94260442E261ECEC
:1024A00082E00E94260413C080914106813079F4B5
:1024B00081E0933009F080E080933C061092E900BF
:1024C0008091E800877F8093E8000E940704809154
:1024D000E80083FF0AC08091E800877F8093E800CE
:1024E0008091EB0080628093EB00AA960FB6F8947F
:1024F000DEBF0FBECDBFDF91CF911F9108952F9208
:102500003F924F925F926F927F928F929F92AF9283
:10251000BF92CF92DF92EF92FF920F931F93CF93D0
:10252000DF93CDB7DEB72A970FB6F894DEBF0FBEA4
:10253000CDBF7C01FC0183819481892B41F0108106
:10254000D180812F8D218F3F11F00C94B81A2A96DB
:102550000FB6F894DEBF0FBECDBFDF91CF911F91B4
:102560000F91FF90EF90DF90CF90BF90AF909F9032
:102570008F907F906F905F904F903F902F90089535
:102580000E94CD0A082F682F89819A810E94C00578
:10259000E12FF0E026E0D29EE00DF11D112430E3A2
:1025A000039FE00DF11D1124EE0FFF1FE454FD4FBA
:1025B00005911491809171058111E3C0F701828129
:1025C00081110CC00530FDE51F0709F4A8C008F013
:1025D00065C004303DE5130709F486C010928805F4
:1025E000083F2CE5120709F05AC1F70182818823C0
:1025F00009F46DC181E0809358010E9437056C0198
:10260000F7018281882311F18091560182FF05C074
:10261000B60190E080E00E948B0882E00E94630592
:102620000931FCE51F0709F4BAC208F041C20731BD
:102630003CE5130709F4A9C280915401909155011A
:10264000059708314CE5140709F4A4C209331105B4
:1026500008F05EC30D32110520F40B32110509F0AC
:102660005BC3F7018281882309F46CC38091560112
:1026700080FF3DC29091E7059D7F09F038C210931D
:102680008C0500938B05D0928A05C09289058460E1
:102690008093560182E00E94FF0B33C007304DE566
:1026A000140709F448C008305DE5150709F096CF16
:1026B000C0900001D090010180900006909001062A
:1026C000A0900206B09003060E94BB0F0E94380C37
:1026D00009E615E0C016D10609F442C0C8010E94FF
:1026E0007F1206501109F6CF0E94BB0F0E94380CD2
:1026F0008FE692E09093700580936F0581E0809360
:1027000071058091E505877009F421CFF701828179
:10271000882309F41CCF82E00E94FF0B18CF0E948F
:10272000BB0F0E94380C89E695E09093700580936A
:102730006F0582E0E4CFC0900201D0900301809049
:10274000000690900106A0900206B09003060E9439
:10275000BB0F0E94380C0FE612E0C016D10659F4E8
:102760000E94BB0F8092000690920106A092020682
:10277000B0920306C6CFC8010E947F120A5F1F4FA6
:10278000ECCF980124503D4523303105C8F591E048
:1027900006301D4509F490E0F7012281291709F45C
:1027A000B0CF813029F08230B9F010927105A9CFF5
:1027B00080916F0590917005F2E08F369F0729F0A8
:1027C000FC0136972281211105C09093030180936B
:1027D0000201EBCFCF01F0CF80916F059091700592
:1027E00025E08936920729F0FC01369622812111D5
:1027F00005C09093010180930001D7CFCF01F0CFA6
:10280000813031F1823009F0E9CE2091020130911E
:102810000301A0916F05B0917005F70182818111CC
:1028200005C0F5E0A936BF0709F4D8CECD0106965C
:102830002817390709F4D2CE86E0F70101900D92EE
:102840008A95E1F780916F0590917005069722C0F7
:102850002091000130910101A0916F05B0917005A8
:10286000F7018281811105C0F2E0AF36BF0709F49C
:10287000B5CECD0106972817390709F4AFCE86E00B
:10288000F70101900D928A95E1F780916F05909183
:10289000700506969093700580936F059FCE093F53
:1028A000FCE51F0739F4F7018281882381F00E943B
:1028B000A80BA3CE809158010A3FFCE51F0739F40D
:1028C000F7019281992319F08111F1CF93CE5090A5
:1028D0005801552009F491CE109287051092860573
:1028E000412CE5E03E2E66246394712CC090860551
:1028F000D090870580E1C816D10488F080918805C2
:10290000882309F4A4C00E9437059093850580931D
:10291000840580E00E94890B4110F3CE6ECE3C9C72
:10292000F0013D9CF00D1124EC5FFE4F20813181C0
:102930009FEF80E0E82FF0E0EE0FFF1FE20FF31FA4
:10294000459154910417150709F4982F452B11F060
:102950008F5FF0CF9F3FE9F4212C4228552059F09A
:102960003C9CF0013D9CF00D1124EC5FFE4F552482
:10297000539484818111512C552D5170552E809185
:10298000860590918705019690938705809386052B
:10299000ADCF20908305F70132813C9CF0013D9C36
:1029A000F00D1124EC5FFE4F2481A30102C0440FFF
:1029B000551F9A95E2F75A8749873323D1F0242B84
:1029C0002483222049F2A30102C0440F551F8A9597
:1029D000E2F7CA0101972817190609F0BECF8281D4
:1029E0009381009711F00E94740B51E05093880579
:1029F000B4CFA30102C0440F551F8A95E2F7CA0164
:102A000001972817190609F5A280B380A114B10413
:102A100079F08A2D0E945107C501805E910969E213
:102A200076E0089710F068E176E0C5010E943D0B62
:102A30003C9CF0013D9CF00D1124EC5FFE4F89851C
:102A4000809594818923848388CF212CF1CF4110F4
:102A50000EC081E00E94890B552009F4CECD109262
:102A600085051092840581E080938305C6CDF7012A
:102A70008281882309F445CE80918305882309F457
:102A800040CE0E9437059093850580938405E091A0
:102A90008205E83008F035CE81E08E0F8093820504
:102AA000F0E0EE0FFF1FEE58FA4F1183008329CE9E
:102AB0000B315CE51507B1F070F0809156018E7F07
:102AC0000C319CE5190709F0C1CD8093560182E0D5
:102AD0000E9463050CC090915601892F8E7F90FF54
:102AE0008160F3CF80915601816080935601F70198
:102AF0009281992309F452C5109249060230FCE5EF
:102B00001F0708F423C206312CE5120738F098019C
:102B10002B5F3C452930310508F018C20E943D0C5E
:102B2000909305068093040600313CE5130709F4F1
:102B3000DCC108F06DC108305CE5150709F4C7C1B8
:102B400008F03CC104309CE5190709F4B8C108F04D
:102B500022C10230FCE51F0709F4ABC180910406D5
:102B6000826003301C4509F4A7C1609104061091EE
:102B7000050684E090E00E944B26612F81E290E000
:102B80000E944B260E94BB0FBCCD809154019091B6
:102B9000550105969093550180935401A8CF8091DB
:102BA00055018F93809154018F9384E791E09F9317
:102BB0008F931F9288E08F939F928F920E947F261F
:102BC0000FB6F894DEBF0FBECDBF64015AE0252ECC
:102BD000F6012081222309F48ACF213009F046C072
:102BE00091818281913031F4F2E0CF0ED11C0E94AC
:102BF000D40C07C0923049F422E0C20ED11C0E94CE
:102C00002E083FEFC31AD30AE3CF933031F432E0FA
:102C1000C30ED11C0E945107F4CF943021F04FEF26
:102C2000C41AD40AEECF52E0C50ED11C30E020E029
:102C3000A6014F5F5F4F8053990B8A30910550F08A
:102C400021503109F0F28FE99FE00197F1F700C0C0
:102C50000000F6CF229EB001239E700D11249C012E
:102C6000260F371FF60181816A01E2CFE22FF0E0E3
:102C7000E45CFD4F3490822F86958695869590E092
:102C8000FC01E45DFD4F44902770512C022E02C0E0
:102C9000559447940A94E2F7E1E04E225524FC0152
:102CA000E45EFD4F6490712C022E02C0759467940F
:102CB0000A94E2F7F1E06F227724FC01E45FFD4F14
:102CC000A490B12C02C0B594A7942A95E2F721E014
:102CD000A222BB244114510419F081EE0E942E0857
:102CE0006114710419F086EE0E942E08832D0E9453
:102CF000D40C672819F086EE0E945107452819F078
:102D000081EE0E945107AB2809F47BCF8CE26FCF94
:102D10000436110509F4A5CC043FFCE51F0761F159
:102D2000B0F4093D3CE5130719F10A3D4CE51407E1
:102D300079F1083D5CE5150709F0D9CE26E241EEB0
:102D400061EE12C0B601C8010E948B08DACC063FC2
:102D50008CE51807C9F0A0F027E245EE66EE073FC4
:102D6000ECE51E0709F0C3CEC7010E94F10CC9CCE7
:102D700027E245EE65EEF8CF26E241EE60EEF4CFB5
:102D800027E245EE64EEF0CF26E241EE62EEECCFB4
:102D900028E241E0EFCF80910406806106303CE5F7
:102DA000130709F489C080910406886007301C4528
:102DB00008F482C08091040680627EC0809104067F
:102DC0008D7F0C305CE5150709F476C070F48091B6
:102DD00004068C600A309CE5190709F46DC008F4FC
:102DE0007AC0809104068E7F67C080910406877F39
:102DF0000E30FCE51F0709F45FC0809104068B7F4D
:102E00000F301C4508F458C0809104068F7E54C0D2
:102E10000C3F3CE5130709F456C030F503315CE57F
:102E2000150709F46AC078F401319CE5190709F423
:102E300060C002311C4509F098CE0E94BB0F809102
:102E400004068F7739C00531FCE51F0709F45DC022
:102E500008F471C08091050681600B3F1C4509F0A4
:102E600084CE8093050681CE01154DE5140709F443
:102E700048C070F40E3F8CE5180799F18091050663
:102E80008E7F0F3F1C4568F3809105068360E9CF74
:102E90000230EDE51E0709F457C008F442C060E0B7
:102EA00003301D4509F061CE8EE090E00E944B2674
:102EB0005CCE8091040681608093040656CE80919A
:102EC00004068460F9CF809105068260CACF8091A4
:102ED00004068064F1CF0E94BB0F809104068068D5
:102EE000EBCF809105068D7FBCCF809104068F7D4E
:102EF000E3CF809104068F7BDFCF80910406837F30
:102F0000DBCF809105068C7FACCF8091040682FBDD
:102F1000992790F921E0922790FB82F990FB83F9A1
:102F2000CBCF80910506982F909591708E7F892B3D
:102F300090FB81F996CF0E94BB0F90910406892FD8
:102F400097FB87F98058B8CF61E0AECF06313CE5FA
:102F5000130709F035C38091E7058A7A91E009F4F7
:102F600090E090938D0569E2811165E38CEB91E02F
:102F70000E9443050E946A05C4CB80918D05811192
:102F80000FC089E2EEEBF1E024EC31E0919189137E
:102F900003C0DF0111971C922E173F07B9F7EACF44
:102FA00085E3F0CF8091090680FF1EC08E7F80935D
:102FB00009066091090670910A0680910B069091AE
:102FC0000C060E94A60D8091080681608093080679
:102FD0004FEF50E782E0415050408040E1F700C0A1
:102FE00000000E94550D8DCB81608093090661E041
:102FF00086950E940A0F85CB4DE25FE066E37FE095
:103000000E9476067ECB46E35FE06DE27FE0F8CF7C
:1030100046ED5EE06FED7EE0F3CF4FED5EE066EDF6
:103020007EE0EECF4EEB5EE06AEC7EE0E9CF4AEC6C
:103030005EE06EEB7EE0E4CF46EA5EE062EB7EE0CF
:10304000DFCF42EB5EE066EA7EE0DACF48EE5EE09C
:1030500069EF7EE0D5CF49EF5EE068EE7EE0D0CF4D
:1030600061E081E0C6CF0E94BB0F9FEFE4E3FCE08C
:103070009150E040F040E1F700C0000087E797E79B
:10308000909301088093000888E19AE00FB6F894C5
:10309000A895809360000FBE90936000FFCF0E94C0
:1030A000510F2FCBC8010E949705D82EA0C2212F07
:1030B0002F70A22E107F19F0A29420EFA222DD2003
:1030C000C9F0AA2069F080E2800F883010F061100A
:1030D0000BC08091E705A82AA092E7050E946A0527
:1030E000802F0E942E0818C08091E805A82AA0927F
:1030F000E805F4CF802F0E945107AA2069F0005EF6
:10310000083010F0611046C0A0948091E705A82215
:10311000A092E7050E946A052B2D2850330B24301E
:10312000310510F40E946A06CC20A9F08091E505D3
:1031300080FD11C0F70112828595859585950E94C5
:10314000170CC7010E947F128091E5058595859532
:1031500085950E94DC0B85E0F701D40101900D926A
:103160008A95E1F789819A810E9497059A81E98180
:10317000F0E026E0929FE00DF11D112430E3839FE3
:10318000E00DF11D1124EE0FFF1FE454FD4F85915A
:103190009491DDC98A2D0E946305BCCF312F3F7009
:1031A000732E107F103219F0729490EF79226620FE
:1031B00071F041E0641661F1DD20B9F1AA2071F1EE
:1031C000F701858180FF8CCF8F70858327C0DD203C
:1031D00091F09091E905872D892BA11003C00E94E1
:1031E00034069ACF51E0A512FACF981709F494CF7C
:1031F0008093E90591CFA11006C00E945D05872D3F
:103200000E94290689CF81E0A81609F485CFF5CF61
:10321000DD2031F095E09A1508F47ECF872DDFCFC1
:10322000E4E0EA1508F478CFEACFAA2041F3F9E305
:103230006F1209C02FEF37EE43E02150304040407D
:10324000E1F700C00000802F0E94510765CF812F59
:1032500086958695837061F0813009F05DCFC80155
:103260009370D11002C090E080E00E943E0654CFDF
:10327000C8019370D11002C090E080E00E94540613
:103280004BCF802FDD2029F00E94D4070E948A06B0
:1032900043CF0E94D806FACF812F837009F066C011
:1032A000D1103ACF802F829586958770880F880F2E
:1032B000602F6F70462E512C712C612C082E04C08B
:1032C000440C551C661C771C0A94D2F740E050E071
:1032D000BA0104FF0FC04FE050E060E070E004C0AE
:1032E000440F551F661F771F8A95D2F7409550955A
:1032F00060957095812F869586958370823019F13F
:10330000D8F40091EA051091EB052091EC0530917D
:10331000ED05813069F04429552966297729CB01CB
:10332000BA0160237123822393230E94CE06F4CE38
:10333000402A512A622A732ACB01BA0164297529CD
:1033400086299729F2CF44295529662977290091A2
:10335000EA051091EB052091EC053091ED05CB01CC
:10336000BA016027712782279327DFCF8695DD205A
:1033700011F0812F8170882309F4CECE802F8295A1
:1033800086958770880F880F602F6F70462E512C9E
:10339000712C612C082E04C0440C551C661C771C33
:1033A0000A94D2F740E050E0BA0104FF0FC04FE0AA
:1033B00050E060E070E004C0440F551F661F771FA7
:1033C0008A95D2F74095509560957095812F869596
:1033D00086958370823019F1D8F40091000610911F
:1033E00001062091020630910306813069F04429DC
:1033F000552966297729CB01BA01602371238223DD
:1034000093230E94B30B88CE402A512A622A732A42
:10341000CB01BA016429752986299729F2CF44295D
:1034200055296629772900910006109101062091FF
:10343000020630910306CB01BA016027712782276B
:103440009327DFCF1F70DD2029F0812F0E94170CFA
:10345000802FC5CE802F0E942906812F0E94DC0B71
:103460005BCE802F52EF651609F450C0561578F0E8
:1034700090EF691619F1E1EF6E1609F43FC0DD20F7
:1034800009F466C0A1102CCE812F8F713CC0F3EFE0
:103490006F1609F440C024EF6212F1CFDD2009F469
:1034A0004CC01F71812F0E94170C58E0159FC0015E
:1034B000112483608093E505812F25C0DD20C9F0AC
:1034C00034E03A1508F428CE1F7161E070E080E026
:1034D00090E004C0660F771F881F991F1A95D2F7D6
:1034E000009100061091010620910206309103061A
:1034F000A4CF45E04A1508F40FCEE6CF812F8F7197
:10350000DD2009F4ABCF0E94170C06CE812F8F71FE
:10351000DD20C9F3A3CFDD2069F01F7161E070E009
:1035200080E090E004C0660F771F881F991F1A95EE
:10353000D2F767CF0E94380CEFCD81E00E94FF0BDD
:1035400081E08A1508F0E8CD82E00E94FF0BE4CD0F
:10355000AA2059F0893309F076CE9FEFE7EEF3E029
:103560009150E040F040E1F76CCE812F8F7176CF23
:1035700085E0AE014F5F5F4F4A01DA0101900D9285
:103580008A95E1F7F701228189819A8121110C94B2
:10359000C0120E949705082F0C94C8120631FCE552
:1035A0001F0709F4EACC8091E7058272F801E35C19
:1035B000FC45E431F10568F4E85CF64D0C94FA251D
:1035C00001152CE5120709F44ECD0F3D1C4509F4F9
:1035D00066CDF70100811181992309F463CDC801FB
:1035E0000E94CD0AD82E682FC8010E94C005B801DC
:1035F0008D2D0E9431098C01682EF701D280A580A3
:10360000A2944FE0A4228091E5058770A1F0CD2C13
:10361000DD2091F0812F807F803421F080E2800FC7
:10362000883048F082E00E94FF0B8091E5058770AA
:10363000CC24C3948111C12CB12EB2943FE0B322AB
:10364000FBE0FB1508F468CDEB2DF0E0E45BF64DF4
:103650000C94FA251F93CF93DF9380919405807F7C
:10366000A9F480919105882389F08091C605D091B5
:10367000950560918F0570919005A0919205B0918C
:103680009305C62FC72316E0D81304C0DF91CF914E
:103690001F91089590E0109711F0CF3F19F4019613
:1036A0008770F2CF189F9001199F300D1124F901F6
:1036B000EA56FA4F41814713F2CF40814613EFCFCC
:1036C00042814111ECCF438154814A1B5B0B433152
:1036D000514028F7809194058F7080618093940504
:1036E000F901E556FA4F80818F70806180838FE801
:1036F00095E00E947F12DF91CF911F910C940E06EE
:103700008F929F92AF92BF92CF92DF92EF92FF92F1
:103710000F931F93CF93DF93CDB7DEB761970FB6AB
:10372000F894DEBF0FBECDBF8C0185E0F801DE014D
:103730001D9601900D928A95E1F7D801EC901196B3
:10374000DC9011971296CC9012978FE8882E85E026
:10375000982E40919205509193054115510509F419
:1037600044C190918F0520919005892F82238F3F2E
:1037700009F43BC11396AD90BC901497F09091055D
:10378000F501E41BF50BAF01FF2009F4FFC08091A8
:103790009405382F307F4331514008F0C8C03111B3
:1037A00085C0FC2C2D1124C09E1122C0C11020C048
:1037B0008F70806180939405C4010E947F12809174
:1037C0009405D80115968C938F2D61960FB6F894B9
:1037D000DEBF0FBECDBFDF91CF911F910F91FF9044
:1037E000EF90DF90CF90BF90AF909F908F90089513
:1037F000A114B10429F08E2D8D218F3F09F016C13F
:1038000080E080FF14C04C2D6D2D8E2D0E94EE05A2
:10381000882369F08FE895E00E947F1286E0EFE848
:10382000F5E0DF011D928A95E9F7F12CCDCFAB28A9
:1038300029F08E2D8D218F3F09F0F5C080E0B82F43
:10384000B170AB2E80FF29C04C2D6D2D8E2D0E94A6
:10385000EE05B82E811121C0ED86DE868D859E8510
:103860000E940F0B292F22952F70223050F0243008
:1038700078F49F7051F0F8019581907F31F4FB2C22
:10388000A3CF9F7011F08823D1F3805E8830B8F306
:10389000C8010E947F12BA2CF2CFCC2009F494CF39
:1038A00080919405816080939405BFCF2D1112C043
:1038B0009E1110C0C1100EC015968C93C8010E94B5
:1038C0007F1286E0F801AFE8B5E001900D928A958D
:1038D000E1F77ACFED86DE868D859E850E94190BF5
:1038E000882309F1CC20F9F080919405803270F0A2
:1038F00020918F053091900538872F831986BB86DC
:10390000AA868C87CE0107960E947F1286E0F80176
:10391000AFE8B5E001900D928A95E1F70E942A1B6D
:10392000FF24F39451CFC8010E947F12F9CF3323B3
:1039300009F470CF2D110FC09E110DC0C1100BC026
:10394000F8018583C8010E947F1286E0D4011D9290
:103950008A95E9F739CFED86DE868D859E850E94B2
:10396000190B882301F3CC20F1F280919405803269
:1039700068F220918F05309190053A8329831B824C
:10398000BD82AC828E83CE010196BECFE331F14081
:10399000E0F6FC2CCC2039F22D1116C09E1114C07B
:1039A0008091940580FD8DCF982F907F09F489CF69
:1039B000F8018583903F09F481CF982F907F905F25
:1039C0008F70892B85837ACFED86DE868D859E85E7
:1039D0000E94190B81119ACF809194058160809388
:1039E0009405C8010E947F12EFCECC2009F49BCF32
:1039F000ED86DE868D859E850E94190BF82E882324
:103A000009F491CF86E0F801AFE8B5E001900D929E
:103A10008A95E1F780918F05909190050E940F0B98
:103A20000E942A1BD1CE81E08C2509CF81E08C2514
:103A3000E8CE1F93CF93DF93CDB7DEB767970FB66E
:103A4000F894DEBF0FBECDBF342F4B8B252F5C8B80
:103A50006D8B7E8B8F8B8E899F8961111092E8050B
:103A60001A8A198A3D872E876F87998B888B86E003
:103A7000FE013D96DE01179601900D928A95E1F7C1
:103A8000CE0107960E94801B882389F016E0809162
:103A9000C60590919505891349C067960FB6F894AD
:103AA000DEBF0FBECDBFDF91CF911F91089586E09D
:103AB000FE013796DE01119601900D928A95E1F78D
:103AC0008A859B85892B11F38F81988589238F3F68
:103AD000E9F22091950530E0C90101968770992798
:103AE0004091C6054817190671F40E94BB0F109249
:103AF00095051092C60586E0EFE8F5E0DF011D921E
:103B00008A95E9F7C3CF96E0929FD001939FB00DBD
:103B10001124AA56BA4FFE01319601900D929A9542
:103B2000E1F7809395050E940E06B0CF819FC001FA
:103B300011248A569A4F0E94801B882309F4ADCF26
:103B40008091C60590E00196877099278093C605FD
:103B50009ECFAF92BF92CF92DF92EF92FF920F93E0
:103B60001F93CF93DF9300D000D0CDB7DEB78CEAA0
:103B7000E82E81E0F82E96EFA92E95E0B92E00E010
:103B8000CC24C394D12CF70181917F01F894E82FC4
:103B9000E295EF70F0E021A18F70A60102C0440F02
:103BA000551F8A95E2F7CA01922F982B91A392A1F3
:103BB0008095892382A3789400C0E4EBF1E030E0A3
:103BC00020E010E04191A42FA295AF70B0E0909654
:103BD0008C9190E04F7002C0959587954A95E2F7D9
:103BE00080FD4CC08C2D022E01C0880F0A94EAF78C
:103BF000182B2F5F3F4F2630310521F7F701319702
:103C000080810E94D70850EA5A95F1F7F50180812A
:103C10001817B1F1108381E0082BFFEFAF1ABF0A2C
:103C200040EBE41641E0F40609F0ADCF1091FF053A
:103C3000002341F181E08093C6010E9437059093F3
:103C4000C5018093C4018091C4019091C5010E9477
:103C50001C050697D8F0E12FF0E0EE5EF94F809159
:103C6000F60580838091F70581838091F805828332
:103C70008091F90583831092C60108C080E0B8CF17
:103C800080E0CACF8091C6018111DDCF0E948A0DEC
:103C9000182F6091FF05882309F48AC019821A82BF
:103CA0001B821C82862F90E0BE016F5F7F4F8E5E6D
:103CB000994F0E94C42381115BC08091C7018F5F1F
:103CC0008093C701863008F471C0E091FE05F0E0F2
:103CD000EE5EF94FDE011196CE01059611921D920E
:103CE0008A179B07D9F780915801882399F0809112
:103CF0008305882379F0809184059091850500974C
:103D000049F00E941C05CD9728F01092830581E0B0
:103D10000E94890B8091560182FF17C00E943705CF
:103D20002091890530918A05AC01421B530B2091EB
:103D30005401309155014217530738F0BC0180916E
:103D40008B0590918C050E948B08011101C0012FF9
:103D5000802F0F900F900F900F90DF91CF911F91B8
:103D60000F91FF90EF90DF90CF90BF90AF900895AC
:103D70001092C701A091FE05B0E0AE5EB94FBE0142
:103D80006F5F7F4F9E012B5F3F4F10E04D91FB0116
:103D90009191BF01491731F0AD0141505109FA012C
:103DA0009083182F6217730789F79DCF10E09BCF80
:103DB00070E06E5E794F8091FE0590E08E5E994FC7
:103DC0000E94EF23C2CF1F920F920FB60F921124C1
:103DD0002F933F934F935F936F937F938F939F9313
:103DE000AF93BF93CF93DF93EF93FF93D091E9000D
:103DF000DF708091EC00C82FC17080FDC0E8109288
:103E0000E9008091F000877F8093F00078940E9411
:103E1000C60F1092E9008091F00088608093F00056
:103E2000CD2BCF70C093E900FF91EF91DF91CF913F
:103E3000BF91AF919F918F917F916F915F914F91C2
:103E40003F912F910F900FBE0F901F9018951F92CA
:103E50000F920FB60F9211242F933F934F935F93BE
:103E60006F937F938F939F93AF93BF93EF93FF9342
:103E70008091E10082FF09C08091E20082FF05C0CD
:103E80008091E1008B7F8093E1008091DA0080FFD8
:103E900024C08091D80080FF20C08091DA008E7FFE
:103EA0008093DA008091D90080FF9BC080E189BDBA
:103EB00082E189BD09B400FEFDCF81E080933D061B
:103EC00080913006811109C00E948D030E94580420
:103ED0008091E20084608093E2008091E10080FFA5
:103EE00017C08091E20080FF13C08091E2008E7FB6
:103EF0008093E2008091E20080618093E2008091F3
:103F0000D80080628093D80019BC85E080933D067C
:103F10008091E10084FF29C08091E20084FF25C0E8
:103F200080E189BD82E189BD89B5982F917080FFBC
:103F3000FBCF8091D8008F7D8093D8008091E100E5
:103F40008F7E8093E1008091E2008F7E8093E2007B
:103F50008091E20081608093E20080913E06882398
:103F600009F445C084E080933D068091E10083FF21
:103F700027C08091E20083FF23C08091E100877F0A
:103F80008093E10082E080933D0610923E0680918E
:103F9000E1008E7F8093E1008091E2008E7F80932C
:103FA000E2008091E20080618093E20042E060E004
:103FB00080E00E9426048091F00088608093F000E9
:103FC000FF91EF91BF91AF919F918F917F916F91F1
:103FD0005F914F913F912F910F900FBE0F901F90C7
:103FE000189519BC10923D061092300676CF80913C
:103FF000E30087FD93E090933D06B7CFCDB7DEB7E2
:1040000060970FB6F894DEBF0FBECDBF84B7877F31
:1040100084BF0FB6F894A895809160008861809362
:104020006000109260000FBE80E890E00FB6F89438
:1040300080936100909361000FBE85B7806885BF53
:1040400085B7806885BF87E195E09093BB01809339
:10405000BA010E948D030E9458048091E20084609E
:104060008093E200789480913D068823A1F010911E
:10407000E9001F709091EC00892F817090FD80E81D
:10408000182B1092E9008091E80083FD0E94C60F72
:104090001F701093E90082E084BD93E095BD9AEF14
:1040A00097BD80936E001092F2051092F305109266
:1040B000F4051092F5050E948A0D809357010E9425
:1040C0008A0D81110E949B23809157018091570195
:1040D00094E0811190E09093FF0584E0891B809328
:1040E000FE0584E90E94D70886E60E94D70887E982
:1040F0000E94D70886EC0E94D70884EF0E94D70858
:1041000085EF0E94D70886EF0E94D70887EF0E94AC
:10411000D70881E30E94D70883E30E94D708E6EF1F
:10412000F5E08EEF95E0A2E1B6E011921D928E17B8
:104130009F07D9F790E080E00E9445268B3E9E4F76
:1041400011F00E94510F0E948A0D811102C00E943D
:10415000A12390E080E00E9445268B3E9E4F11F007
:104160000E94510F82E090E00E943726809327063C
:104170000E943D0C909305068093040683E090E036
:104180000E943726682F70E090E080E00E94CE0603
:10419000C0900006D0900106E0900206F090030661
:1041A0000E94A80BC114D104E104F10461F033E0D2
:1041B000F694E794D794C7943A95D1F7C0FE03C01C
:1041C00081E08093580180910E06811139C090E002
:1041D00080E00E9445268B3E9E4F21F00E94510FA9
:1041E0000E943A0F88E090E00E943F266093090603
:1041F00070930A0680930B0690930C068091080634
:104200008360809308066E7F71F40E943A0F88E005
:1042100090E00E943F266093090670930A068093FF
:104220000B0690930C060E947B068091090680FF86
:1042300004C060E086950E940A0F81E080930E061C
:1042400089E591E09093100680930F0688E1E82EAF
:10425000F12C90E4C92E82E196E028E0D22ED80E0F
:1042600080913D0600E112E1853009F43CC10E94D5
:10427000A91D81110E942B05A8E2B6E0E2E1F6E05B
:1042800010E000E0802EA1908D918A1509F43AC1CA
:104290008A25912CBB24B394982F9B2109F42DC11E
:1042A0000E948A0D882399F09F828886AB2081E046
:1042B00009F480E089870E9437058160782F9B8709
:1042C0008A874F81588569858B850E94191DF80161
:1042D000E85DF94F8081B826B08286E0E0E2F6E042
:1042E000DE01119601900D928A95E1F7B0902206B9
:1042F000A090230610912406009125061092220614
:104300001092230610922406109225068B2D8A29DE
:1043100009F448C080911E0690911F060E941C055A
:104320009C0190911D06992309F42EC12D31310570
:10433000C8F19F3F19F09F5F90931D06BB2059F075
:104340000E94B4079FEF1B140CF491E0899F802D0D
:10435000112480932206AA2059F00E94B4079FEFEF
:104360001A140CF491E0899F802D11248093230668
:10437000309122063323B1F020912306222391F0BD
:1043800045EB3403C0011124992309F4D2C0909362
:10439000220645EB240390011124332309F4CDC0F8
:1043A00030932306812F802B09F448C080911B068F
:1043B00090911C060E941C059C0190911A0699235D
:1043C00009F4DDC025363105C8F19F3F19F09F5F24
:1043D00090931A06112359F00E9492079FEF11162D
:1043E0000CF491E0899F802D1124809324060023F2
:1043F00059F00E9492079FEF10160CF491E0899FEC
:10440000802D112480932506309124063323B1F0AA
:1044100020912506222391F045EB3403C00111249D
:10442000992309F48EC09093240645EB2403900150
:104430001124332309F489C0309325068091220684
:1044400090912306892B90912406892B9091250623
:10445000892B11F00E948A0686E0FE013196A0E2C7
:10446000B6E001900D928A95E1F70E946A0690915C
:104470002606891709F4F4CE0E946A068093260660
:10448000EFCE80913D06843009F1109211060FB6EF
:10449000F894A895E09260000FBEC092600083B7C8
:1044A000817F846083BF83B7816083BF7894889560
:1044B00083B78E7F83BF0FB6F894A8958091600074
:1044C000886180936000109260000FBE80913C066E
:1044D000882349F00E94A91DE2E1F6E08191811153
:1044E00038C0DE12FBCF80913D06853009F4C9CF7C
:1044F0000E94BB0F0E946A06BACE9394BB0C46E0A2
:104500009412CACE0F5F1F4F0830110509F0BACEC2
:104510008FEF8C878D871E860E9437058160782FEC
:10452000988B8F874C855D856E8588890E94191DC3
:10453000D4CE81E0809322062CCF81E080932306A5
:1045400031CF81E08093240670CF81E080932506EF
:1045500075CF09BD19BD09B400FEFDCF8091D8000B
:104560008F7D8093D8008091E00082608093E0008E
:104570008091E00081FDFCCF0E94BB0FB4CF2D32B3
:10458000314008F024CF5ACF232B09F0D4CE0ACFE4
:104590000F931F930E948A0D882321F01F910F9182
:1045A0000C942B050E942B050091F2051091F30548
:1045B0002091F4053091F505600F711F821F931F44
:1045C0001F910F910895CF92DF92EF92FF926B01AE
:1045D0007C010E948A0D81110EC00E942B05C61A13
:1045E000D70AE80AF90AC092F205D092F305E092E0
:1045F000F405F092F505FF90EF90DF90CF900895CD
:1046000078941F921FB61F9211248F939F93AF939C
:10461000BF938091EE059091EF05A091F005B091C8
:10462000F1050196A11DB11D8093EE059093EF0554
:10463000A093F005B093F105BF91AF919F918F9139
:104640001F901FBE1F9018951F921FB61F92112416
:104650008F939F93AF93BF9380911106811113C0E5
:104660008091EE059091EF05A091F005B091F105D4
:104670004196A11DB11D8093EE059093EF05A09387
:10468000F005B093F105BF91AF919F918F911F906D
:104690001FBE1F9018951F93CF93DF93EC01162F29
:1046A0008F8180FF0BC088819091090680FF12C026
:1046B00091609093090686950E940A0F8F8181FF71
:1046C0001DC0212F4B816A818981DF91CF911F917C
:1046D0000C94B80D9E7F9093090680910806816026
:1046E000809308062FEF80E792E0215080409040B1
:1046F000E1F700C000000E94550DE0CFDF91CF919F
:104700001F91089525E0E9E0F6E0DC0101900D92AB
:104710002A95E1F720910606309107064091080698
:10472000FC01258336834783089510920806089577
:1047300080910806089562E070E084E691E00C94B0
:10474000722462E070E084E691E00C947B240E9485
:104750009823882361F084E596E00E94822381E01B
:1047600090E00E945425892B11F40C949523089510
:1047700080915306883039F460E084E596E00E9429
:104780004B23109253060895CF93DF93D62FC72F54
:104790000E94A72390E080E00E9454250097E9F44E
:1047A000ED2FFC2FDC01A15BB94F2C9121930196D9
:1047B00084309105B9F70E94C8226E5F7F4F8F4FFA
:1047C0009F4F60934B0670934C0680934D069093D9
:1047D0004E0681E0DF91CF91089580E0FBCFCF932B
:1047E000DF93D62FC72F0E94B82360914B0670919C
:1047F0004C0680914D0690914E060E94E322ED2FCB
:10480000FC2F90E080E02191DC01A15BB94F2C935B
:10481000019684309105B9F7DF91CF9108958EE12B
:104820004A9B02C08150E1F74A9BFECF08955A98F7
:1048300080E28A95F1F75A9A0895FC013BE03A9597
:10484000F1F720E090E080E031E040E14A95F1F7B7
:10485000880F4A9B02C08160232742E04A95F1F706
:10486000000040E14A95F1F79F5F6913EECF90E1B8
:104870009A95F1F799B132E03A95F1F7000040E1ED
:104880004A95F1F792FB992790F992272081920F90
:1048900090830895EF92FF920F931F93CF93DF932E
:1048A0000F92CDB7DEB719828C017C01E60EF11CA8
:1048B0000E151F0561F481E09981911180E00F9040
:1048C000DF91CF911F910F91FF90EF9008950E947B
:1048D0000F2468E0CE0101960E941D24F801819307
:1048E0008F01E6CF90935E0680935D0660935C0631
:1048F000529A5A9A089590935E0680935D0660934B
:104900005C0652985A9AEA9AE9E6F0E080818F7C38
:10491000808308956150770B91E001C0990F6A95EB
:10492000EAF720E031E0911108C0222391F05A9A71
:1049300080E28A95F1F75A980895492F482339F073
:104940005A9A232740E24A95F1F79695ECCF5A9868
:10495000F9CF5A98EDCFFF920F931F93CF93DF9328
:10496000EC018C01060F111DC017D10731F4DF9146
:10497000CF911F910F91FF900895F9900E941724F5
:1049800068E08F2D0E948A24EFCF1F920F920FB6FE
:104990000F9211240F931F932F933F934F935F9385
:1049A0006F937F938F939F93AF93BF93EF93FF93F7
:1049B000CF93DF930F92CDB7DEB719820E940F24F9
:1049C00067E0CE0101960E941D24082F06950695EA
:1049D0000695982F92959570202F2570920F292F6C
:1049E0002370969596958770920F891344C089819C
:1049F000811141C080915C068017E8F120E12A9581
:104A0000F1F75A9A529A82E08A95F1F700C0A8E02D
:104A10000A9FC001112400915D0610915E06080FE7
:104A2000191F5A98F8016581662321F086819781C4
:104A30000E94AB240E941724F0E1FA95F1F75A98EE
:104A400052985A9A20E12A95F1F7D80112966C9162
:104A50001297662331F113968D919C910E944A24FE
:104A6000D801ED91FC91882311F088E001C082E02B
:104A700080830E940F240F90DF91CF91FF91EF91DF
:104A8000BF91AF919F918F917F916F915F914F9166
:104A90003F912F911F910F910F900FBE0F901F907C
:104AA0001895ED91FC91E1CF0F931F93CF93DF9376
:104AB00020915C06281719060CF471C08C0193E054
:104AC000000F111F9A95E1F7C0915D06D0915E0627
:104AD000C00FD11FF894529A5A9825E02A95F1F701
:104AE0000000982F969595708570980F892F837088
:104AF00096959695980F092B0E94172400C067E0A1
:104B0000802F0E948A2480E18A95F1F752985A9A60
:104B10004A9B17C087E090E04A9915C06D816623D3
:104B200021F18E819F810E944A2481111EC0529AD8
:104B30005A9AE881F98182E08083789482E090E05B
:104B40000DC000C0E5CF019771F4529A5A9AE881DE
:104B5000F98181E08083789481E090E0DF91CF91CA
:104B60001F910F91089500C0D7CF0E940F2420E21B
:104B70002A95F1F75A98529A80E18A95F1F76A815D
:104B8000662321F08B819C810E94AB240E94172414
:104B9000E881F9811082789490E080E0DFCF84E0B2
:104BA00090E0DCCFAA1BBB1B51E107C0AA1FBB1FB3
:104BB000A617B70710F0A61BB70B881F991F5A95A9
:104BC000A9F780959095BC01CD01089597FB072E1C
:104BD00016F4009407D077FD09D00E94D22507FC77
:104BE00005D03EF4909581959F4F089570956195FD
:104BF0007F4F0895EE0FFF1F0590F491E02D09946B
:104C00002F923F924F925F926F927F928F929F92DC
:104C1000AF92BF92CF92DF92EF92FF920F931F93CA
:104C2000CF93DF93CDB7DEB7CA1BDB0B0FB6F8947B
:104C3000DEBF0FBECDBF09942A88398848885F84BB
:104C40006E847D848C849B84AA84B984C884DF802C
:104C5000EE80FD800C811B81AA81B981CE0FD11D10
:104C60000FB6F894DEBF0FBECDBFED010895F999E0
:104C7000FECF92BD81BDF89A992780B50895A6E12F
:104C8000B0E044E050E00C947126A8E1B0E042E0CE
:104C900050E00C947126262FF999FECF92BD81BD6C
:104CA000F89A019700B4021639F01FBA20BD0FB66A
:104CB000F894FA9AF99A0FBE08950396272F0E9446
:104CC0004C260E944B26252F0E944C26242F0C9404
:104CD0004C260196272F0E944C260C944B26DC0173
:104CE000CB01FC01F999FECF06C0F2BDE1BDF89AF7
:104CF000319600B40D9241505040B8F70895AEE09F
:104D0000B0E0E5E8F6E20C940E260D891E898F8945
:104D1000988D26E02C831A83098397FF02C080E0D8
:104D200090E801979E838D83AE01455E5F4F698D4C
:104D30007A8DCE0101960E94AF264D815E8157FD8E
:104D40000AC02F813885421753070CF49A01020FCD
:104D5000131FF80110822E96E4E00C942A26ABE093
:104D6000B0E0E5EBF6E20C9400267C013B018A0101
:104D7000FC0117821682838181FFB9C19AE0292E36
:104D8000CE0101965C01F7019381F30193FD8591BA
:104D900093FF81913F01882309F446C1853239F49C
:104DA00093FD859193FF81913F01853229F4B701ED
:104DB00090E00E949028E7CF912C412C512CFFE1EC
:104DC000F51538F08B3209F188F4803201F1833225
:104DD00021F157FC3AC020ED280F2A3040F556FE4D
:104DE0001FC0929C200D1124922E06C08D3291F08E
:104DF000803379F7689450F8F30193FD859193FF20
:104E000081913F018111DBCF20C0689451F86894F3
:104E100052F8F2CF689453F8EFCF689454F8ECCF7F
:104E2000429C200D1124422E689455F8E5CF8E3215
:104E300029F456FCF9C0689456F8DECF8C3619F484
:104E4000689457F8D9CF8836B9F2982F9F7D95543A
:104E50009330C0F08336A1F18337C1F1833509F077
:104E60005BC0F801C190D1908F01692D70E056FCB4
:104E700002C06FEF7FEFC6010E947A284C01689450
:104E800057F80AC00C5F1F4F2FE3298388248394AF
:104E9000912C6501E89457F853FC04C04814190498
:104EA00009F018F5342C8114910431F5332009F4FC
:104EB0006ACFB70180E290E00E9490283A94F6CF42
:104EC000F801808189830E5F1F4FE0CFF801C19008
:104ED000D1908F01692D70E056FC02C06FEF7FEF1B
:104EE000C6010E9485284C01D5CFB70180E290E031
:104EF0000E9490284A94D2CFF60157FC859157FE24
:104F000081916F01B70190E00E94902831103A948E
:104F1000F1E08F1A9108C7CF843619F0893609F06D
:104F200074C0F80157FE6AC06191719181919191AD
:104F30008F01252D2F76D22E97FF09C09095809551
:104F4000709561957F4F8F4F9F4F6894D7F82AE0F7
:104F500030E0A5010E94C028C82ECA188C2C5D2CF8
:104F6000D6FE0CC0E89450F8C91440F4D4FE05C035
:104F7000D2FC03C0FD2DFE7E5F2E892C54FE8FC017
:104F8000FE01EC0DF11D8081803309F081C0252DDB
:104F9000297E522E852D8870382E53FC8FC050FEEE
:104FA00089C09C2C841418F44C0C942C981854FE32
:104FB0008BC0B70180E390E00E94902852FE09C0A8
:104FC00088E790E051FE02C088E590E0B7010E94BA
:104FD0009028C91408F484C0CA94D12C9FEFC91A30
:104FE000D90ACA0CDB1CF60182916F01B70190E06F
:104FF0000E949028AC14BD04B1F758CF6191719113
:10500000072E000C880B990B93CFD52CE894D4F87D
:105010002AE030E0853739F1952D997FD92E8F36EA
:1050200001F148F48835A9F0F701868197812B9624
:10503000E2E10C941C26803749F08837A9F7D4FEAA
:1050400002C06894D2F820E130E00DC06894D4F832
:10505000F6CF54FE03C0E92FE660DE2E20E132E0F9
:1050600002C028E030E0F801D7FE0DC061917191D7
:10507000819191918F01A5010E94C028C82ECA1864
:10508000E894D7F86BCF6191719190E080E0F2CF16
:1050900052FC02C083947ECF839483947BCF852D72
:1050A000867809F477CFF6CFB70180E290E00E94CE
:1050B000902883948414C0F3312C79CF342C381881
:1050C000841408F474CFF8CF852D867809F481CF45
:1050D0008BE251FE80E257FC8DE2B70190E077CF82
:1050E000B70180E390E00E9490289A9472CF8FEFEE
:1050F0009FEF9DCFFC010590615070400110D8F7E3
:10510000809590958E0F9F1F0895FC01615070400F
:1051100001900110D8F7809590958E0F9F1F0895EC
:105120000F931F93CF93DF93182F092FEB018B81E0
:1051300081FD09C01FEF0FEF812F902FDF91CF91DD
:105140001F910F91089582FF14C02E813F818C81A1
:105150009D81281739073CF4E881F981CF01019638
:105160009983888310838E819F8101969F838E838C
:10517000E3CFE885F985812F0995892BA1F3DACF53
:10518000FA01AA27283051F1203181F1E8946F9378
:105190006E7F6E5F7F4F8F4F9F4FAF4FB1E03ED01E
:1051A000B4E03CD0670F781F891F9A1FA11D680FBC
:1051B000791F8A1F911DA11D6A0F711D811D911DEF
:1051C000A11D20D009F468943F912AE0269F112464
:1051D0003019305D3193DEF6CF010895462F4770C8
:1051E000405D4193B3E00FD0C9F7F6CF462F4F7023
:1051F000405D4A3318F0495D31FD4052419302D081
:10520000A9F7EACFB4E0A695979587957795679526
:10521000BA95C9F700976105710508959B01AC0126
:105220000A2E06945795479537952795BA95C9F74D
:10523000620F731F841F951FA01D0895F894FFCF60
:10524000280B280B310B310B330B310B310B310B8E
:10525000280B280B380B310B310B380BA910D11050
:105260006712D110671204112511671222122F1232
:10527000D217FC17031808180D18121817181C1845
:10528000211826182B1830188113811381138113CC
:10529000811381138113811357185718CE18CE1814
:1052A000271941198C188C184C19221A311A311AE5
:1052B00069056F0206011C00000001130000FA00DE
:1052C0000F0000F400370000EE00140000E8000DAD
:1052D0000000E2000E0000DC00100000D6003400E8
:1052E00000D0002D0000CA001B0000C40005000013
:1052F000BE00190000B800360000B2001D0000AC6E
:1053000000280000AF000101011905A70C860C82DE
:105310000C7E0C014A06044B06044F065306085443
:10532000060000000A25640A000001818283E20071
:10533000E900EA00B500B600B700CD008301CC005B
:105340008A019201940121022302240225022602ED
:1053500027022A02B300B4006F007000946697C65B
:0A53600000000000F4F5F6F7313309
:00000001FF
