:100000000C94AB030C94F2030C94F2030C949C2913
:100010000C94F2030C94F2030C94F2030C94F2038C
:100020000C94F2030C94F2030C94DF0D0C94241244
:100030000C94AC260C94F2030C94F2030C94F2038F
:100040000C94F2030C94F2030C94F2030C94F2035C
:100050000C94F2030C94EE0E0C94F2030C94F20345
:100060000C94F2030C94F2030C94F2030C94F2033C
:100070000C94F2030C94F2030C94F2030C94F2032C
:100080000C94F2030C94F2030C94F2030C94F2031C
:100090000C94F2030C94F2030C94F2030C94F2030C
:1000A0000C94F2030C94F2030C94F203084AD73B2D
:1000B0003BCE016E84BCBFFDC12F3D6C74319ABD37
:1000C00056833DDA3D00C77F11BED9E4BB4C3E915B
:1000D0006BAAAABE000000803F05A84CCDB2D44E4A
:1000E000B93836A9020C50B9918688083CA6AAAA4C
:1000F0002ABE000000803F07634236B79BD8A71A8C
:1001000039685618AEBAAB558C1D3CB7CC5763BD99
:100110006DEDFD753EF6177231BF000000803F089F
:10012000000000BE922449123EABAAAA2ABECDCC42
:10013000CC4C3E00000080BEABAAAAAA3E00000044
:1001400000BF000000803F0000000000084178D39D
:10015000BB4387D1133D190E3CC3BD4282AD2B3E3C
:1001600068EC8276BED98FE1A93E4C80EFFFBE01DC
:10017000C4FF7F3F00000000000029002C000000A9
:1001800018002C00000004002C00000015002C00BA
:1001900000001A002C00000006002C0000000A00DD
:1001A0002C0000000C002C00000011002C000000AE
:1001B00007002C00000009002C00000012002C0099
:1001C000000008002C0000000B002C0000001700AD
:1001D0002C00000016002C000000000101010101AC
:1001E00001010101020202020202020202030303F0
:1001F00003030303030404040404040405050505C0
:10020000050606060606070707070708080808097F
:100210000909090A0A0A0B0B0B0C0C0C0D0D0D0E2B
:100220000E0E0F0F0F1010111111121213131414C0
:10023000151516161717181819191A1A1B1B1C1D35
:100240001D1E1E1F2020212222232424252626278E
:100250002829292A2B2C2D2D2E2F303132323334C0
:1002600035363738393A3B3C3D3E3F4041424344C6
:1002700045464748494A4C4D4E4F505153545556A8
:1002800058595A5B5D5E5F616264656668696B6C54
:100290006D6F7072737577787A7B7D7E80828385CF
:1002A00087888A8C8E8F91939596989A9C9EA0A20F
:1002B000A3A5A7A9ABADAFB1B3B5B7BABCBEC0C219
:1002C000C4C6C9CBCDCFD1D4D6D8DBDDDFE2E4E7DD
:1002D000E9EBEEF0F3F5F8FAFDFF00000000000096
:1002E000000000000000000000000000000000000E
:1002F00000000000000000000000000000007E0F71
:1003000000D4FFFFFFC700000078000000000000DD
:1003100000002A2B28000000000000000000000060
:10032000000000000029000000002C1E34202122C3
:1003300024342627252E362D3738271E1F2021222C
:10034000232425263333362E37381F0405060708A5
:10035000090A0B0C0D0E0F10111213141516171895
:10036000191A1B1C1D2F3130232D350405060708D3
:10037000090A0B0C0D0E0F10111213141516171875
:10038000191A1B1C1D2F3130354C2B0014001A007C
:10039000080015001700E00004001600070009001F
:1003A0000A00E1001D001B00060019000500000006
:1003B00000000000E30001512C002A00130012008D
:1003C0000C0018001C00340033000F000E000D005C
:1003D0000B00290038003700360010001100000023
:1003E00000000000E6000251280013501E001F000C
:1003F000200021002200E000C35CC65CCA5CC85C2F
:100400000000E100C45CC75CCB5CC95C000000007C
:1004100000000000E30001002C002A002700260055
:10042000250024002300000000004F00520051006E
:10043000500000000000000000000000000000006C
:1004400000000000E600010028002B001E021F0231
:10045000200221022202E000000000000000000053
:100460000000E100000000000000000000000000AB
:1004700000000000E30001002C002A0027022602F1
:100480002502240223023500310030002F002E0007
:100490002D003502310230022F022E022D02000003
:1004A00000000000E6000100280029000900070004
:1004B00011000C000A002A46160017000B00080065
:1004C0001200025506001A00150004001800000072
:1004D00000000000055404542C0029000900070006
:1004E00011000C000A002A46160017000B00080035
:1004F0001200025506001A00150004001800000042
:1005000000000000055404542C002B002F002F0283
:1005100026021F02230231003302330038021E027A
:100520003800350230003002270224022502000084
:10053000000000000000000000002B002F002F0230
:1005400026021F02230231003302330038021E024A
:100550003800350230003002270224022502000054
:10056000000000000000000000002E002300240016
:100570002500260037002E021E001F00200021004B
:1005800022002D0020022102220227003600000056
:10059000000000000000000008552E002300240089
:1005A0002500260037002E021E001F00200021001B
:1005B00022002D0020022102220227003600000026
:1005C000000000000000000008551050B6004A006E
:1005D00052004D00B70000002B05500051004F00A5
:1005E0004C0000001D011B0106011901045500000B
:1005F00000000000025501552A011050B6004D00C0
:1006000052004A00B70000002B054F005100500077
:100610004C0000001D011B010601190104550000DA
:1006200000000000025501552A0105010902A1013F
:1006300085020901A10005091901290815002501F4
:100640009508750181020501093009311581257F61
:1006500095027508810609381581257F9501750871
:100660008106050C0A38021581257F9501750881E0
:1006700006C0C005010980A101850319012AB70040
:10068000150126B700950175108100C0050C090100
:10069000A101850419012AA002150126A0029501D5
:1006A00075108100C005010906A101050719E0299F
:1006B000E7150025019508750181029501750881EE
:1006C000010507190029FF150026FF00950675088A
:1006D000810005081901290595057501910295010B
:1006E00075039101C009023B00020100A0FA090450
:1006F0000000010301010009211101000122400055
:100700000705810308000A09040100010300000035
:10071000092111010001227B000705820320000A44
:1007200012011001000000085346010001000102FF
:1007300000010C0343006F0072006E0065000000B2
:10074000100366006F006F007300740061006E009C
:1007500000000403090411241FBECFEFDAE0DEBF5E
:10076000CDBF04B603FE27C080917C0690917D0624
:10077000A0917E06B0917F068730904BA740B04B8A
:10078000D1F410927C0610927D0610927E06109293
:100790007F0614BE84B7877F84BF0FB6F894A895F0
:1007A00080916000886180936000109260000FBEAD
:1007B000E0E0F8E3099511E0A0E0B1E0E0E2F6E660
:1007C00002C005900D92AA3BB107D9F726E0AAEB2B
:1007D000B1E001C01D92AC37B207E1F70E943621AB
:1007E0000C94D6320C940000E8EDF0E080818E7F0E
:1007F00080831092E2001092DA001092E100A0EEE5
:10080000B0E08C9181608C9380818F77808319BC5C
:10081000A7EDB0E08C918E7F8C9380818F7E80835A
:1008200010924D0608952091E4003091E50095E680
:10083000A9012091EC00822F817020FF06C08091D9
:10084000E80080FF06C080E008952091E80022FDC6
:100850001AC080915A06882389F0853089F08091EA
:10086000EB0085FD0FC02091E4003091E5004217B8
:100870005307F9F29150E1F684E0089582E008957B
:1008800083E0089581E00895EF92FF920F931F9304
:10089000CF937C018B010E941304C82F811117C0D4
:1008A0008091E80085FD0BC08091E8008E778093F1
:1008B000E8000E941304882399F3C82F08C0F701A9
:1008C00081917F018093F1000150110949F78C2F2C
:1008D000CF911F910F91FF90EF90089580915C064A
:1008E00087FF13C08091E80082FF06C08091E80076
:1008F0008B778093E80004C080915A068111F2CF73
:10090000089580915A068823D9F38091E80080FFEA
:10091000F8CF8091E8008E77ECCF982F9093E90084
:10092000242F762F50E0891731F07091EC00209140
:10093000ED005091F00021FD07C09F5F973071F7E7
:100940008093E90081E008953091EB003E7F309381
:10095000EB003091ED003D7F3093ED003091EB00E6
:1009600031603093EB007093EC002093ED005093D6
:10097000F0002091EE0027FDE0CF80E00895CF92B7
:10098000DF92EF92FF920F931F93CF93DF93C8ED07
:10099000D0E088818F7E8883E7EDF0E08081816000
:1009A000808384E082BF81E080934D0688818E7FC2
:1009B000888302EE10E0F80110821092DA0081EED6
:1009C000C82ED12CF601108288818F778883888188
:1009D0008068888388818F7D888319BC10925A062D
:1009E00010925B06109259061092580690EEE92E6E
:1009F000F12CF70180818B7F8083888181608883DF
:100A000042E060E080E00E948D04F60180818E7FEC
:100A10008083F80180818160808380818860808309
:100A2000F70180818E7F8083888180618883DF9158
:100A3000CF911F910F91FF90EF90DF90CF9008958D
:100A4000FC01809162069091630686179707A0F0DB
:100A50006115710529F49091E8009E779093E80064
:100A600090E06115710551F4911108C08091E80082
:100A700082FF34C080E00895BC01F2CF80915A0615
:100A80008823C1F18530C1F18091E80083FD30C039
:100A90008091E80082FDEACF8091E80080FFE1CFFD
:100AA0008091F3002091F200382F6115710519F043
:100AB0002830310558F091E02830310509F090E0F8
:100AC0002091E8002E772093E800CBCF819180938E
:100AD000F100615071092F5F3F4FE7CF80915A06B7
:100AE000882341F0853041F08091E80083FFBECF3C
:100AF00081E0089582E0089583E0089580E00895FC
:100B000080914F0608959C014FB7F8948091EE05AF
:100B10009091EF05A091F005B091F1054FBF821BB8
:100B2000930B08952FB7F8946091EE057091EF053F
:100B30008091F0059091F1052FBF08959C01FC0173
:100B400032969FEF80E04191461751F09F3F19F494
:100B5000411101C0982F8F5F8630A9F79F3F09F49C
:100B60000895290F311D97FD3A95F9016283089583
:100B70008091E90581111092E90508958095909181
:100B8000E80598239093E80508958091E7059091F2
:100B9000E805892B9091E605892B8093BC01909103
:100BA000E905992391F0892B8093BC0120E08EEB1D
:100BB00091E0FC013191CF0131112F5FF1E0843CD4
:100BC0009F07B9F721110E94B805E0910B06F0913B
:100BD0000C06309731F00280F381E02D8CEB91E030
:100BE00009940895E92FEE0FE90FEE0F8E0F982F5D
:100BF000977086958695869525E0829FF001112451
:100C0000E953FA4F50E040E080E0219130E0092EB6
:100C100002C0369527950A94E2F721703327042EF7
:100C200001C0220F0A94EAF7822B4F5F5F4F4530D5
:100C3000510559F70895E92FEE0FE90FEE0F8E0FCA
:100C4000982F977041E001C0440F9A95EAF7869576
:100C50008695869595E0899FF0011124E953FA4F16
:100C600030E020E070E05191DF011197CB01022EBE
:100C700002C0969587950A94E2F781708195852741
:100C8000842385278C932F5F3F4F2530310559F7FB
:100C900008952091C6059091950556E0291302C04C
:100CA00080E0089530E0529FF001539FF00D112431
:100CB000EA56FA4F7181761306C07081781303C02B
:100CC0007281741304C02F5F3F4F2770E7CF81E01C
:100CD00008958091C60590919505981301C00895D7
:100CE0008F5F8770FACF882321F00E94BE050C9495
:100CF000C5050895882339F09091E805982B9093C5
:100D0000E8050C94C5050895882341F080959091DD
:100D1000E70589238093E7050C94C505089588238A
:100D200039F09091E705982B9093E7050C94C50551
:100D3000089520916D0230916E022817390771F0E5
:100D400090936E0280936D02E0910B06F0910C0679
:100D5000309721F00084F185E02D099408952091C9
:100D60006B0230916C022817390771F090936C0276
:100D700080936B02E0910B06F0910C06309721F006
:100D80000680F781E02D09940895E0910B06F0911B
:100D90000C06309739F022E0DC012C930480F581B9
:100DA000E02D09940895E0910B06F0910C06309720
:100DB00021F00190F081E02D099480E00895FA017E
:100DC000811101C0FB01099480910506982F9E7F37
:100DD00039F480910506817082608093050608953C
:100DE0008430B8F7089540911E068D3E59F48091E5
:100DF0001F0687FF0DC010921F0641110BC01092F5
:100E0000190608C08E3E81F480911F0618169CF3C7
:100E1000442381F08091200690912106892B09F0CE
:100E20005AC01092160608958F3E49F447FFF0CF3E
:100E300010921E0680911F068111ECCFE0CF803FFB
:100E400019F41416ACF3E4CF90912006893F29F4ED
:100E50001916F4F610922006DBCF8A3F19F497FF9B
:100E6000D7CFF8CF909121068B3F29F497FFD0CFB1
:100E700010922106CDCF8C3F19F41916CCF3C8CFB0
:100E80009FE0980F983090F4815F990B21E030E05B
:100E9000B90102C0660F771F8A95E2F7CB018095F2
:100EA00090911D06892380931D06B2CF8D3F31F4AA
:100EB00080918E058E7F80938E05AACF8E3F21F480
:100EC00080918E058D7FF7CF8F3F09F0A1CF809164
:100ED0008E058B7FF0CF089580918E0580FD16C022
:100EE00081FD16C082FD16C0809116068823A1F0F0
:100EF000883280F428E0829FC001112468E270E00B
:100F00000E94BD2A862F672B39F0089582E008954C
:100F100084E0089588E0089581E0089580918E0529
:100F200080FD14C081FD14C082FD16C08091190699
:100F3000882381F0843180F422E3829FC001112450
:100F400064E170E00E94BD2A862F08958CE0089528
:100F500089E1089585E0089582E308958D3E31F496
:100F60000E948E07819580931F0608958E3E19F486
:100F70000E948E07F8CF8F3E31F40E948E07819534
:100F800080931E060895803F19F40E948E07F8CFC3
:100F9000893F29F40E946C078093200608958A3FB8
:100FA00021F40E946C078195F7CF8B3F31F40E94AA
:100FB0006C0781958093210608958C3F19F40E9457
:100FC0006C07F8CF9FE0980F983070F4815F990B11
:100FD00021E030E001C0220F8A95EAF780911D06DA
:100FE000822B80931D0608958D3F31F480918E05EC
:100FF000816080938E0508958E3F21F480918E0547
:101000008260F7CF8F3FB9F780918E058460F1CF72
:10101000F894E82FE295EF70F0E031A1282F2F70BF
:1010200081E090E001C0880F2A95EAF7982F90950B
:10103000932391A392A1892B82A3789408959091F0
:10104000000692FF06C0282F28712830F9F4877F08
:10105000846093FF06C0282F28712831F1F4877E21
:1010600084612091010620FF06C0382F3871383086
:10107000D9F4877F816021FF06C0282F287128318D
:10108000D1F4877E816194FD877E0895282F247195
:101090002430F9F68B7F8860DCCF282F247124312F
:1010A00001F78B7E8861DDCF382F3171313019F730
:1010B0008E7F8860E0CF282F2171213121F78E7E2D
:1010C0008861E1CFCF93DF93972F70E026E0929F66
:1010D000600D711D1124FB0130E3839FE00DF11DB4
:1010E0001124EE0FFF1FE657FC4FC591D491CE019E
:1010F000C238D105B9F1E8F5C133D10509F499C079
:1011000050F5C932D10509F48DC0CA32D10509F4B0
:1011100097C0C11521E5D20708F0BFC0C11530E561
:10112000D30708F016C1C83ED10508F09DC0C13EE6
:10113000D10568F5C83AD10508F089C0C53AD1058E
:1011400008F0FFC0C130D10511F1209709F443C068
:101150002497E8F440C0C533D10509F45CC0C93315
:10116000D105B9F620910006237089F080EE90E059
:101170000EC0C33ED10591F168F4C03ED105F9F02F
:10118000C23ED10531F62091000622FD20C0DF913C
:10119000CF910895C63ED10561F1C73ED10581F1D9
:1011A000C43ED10509F0B5CF2091010621FFEFCF54
:1011B0008091000684FD0FC087EE90E0E8CF20917B
:1011C000000620FD12C13091010630FFE0CF83EE12
:1011D00090E024FFDCCF90E080E0D9CF20910006A2
:1011E00022FD06C13091010630FDC0CF24FFCFCFD4
:1011F000F2CF2091000623FFCACF24FDECCFDCCF35
:101200002091000623FDF7C03091010631FFEECF9B
:1012100084EE90E0BCCF2091000625FFB8CF89E294
:1012200090E0B5CF2091000625FFB1CF85E390E097
:10123000AECF2091000626FFAACF8AE290E0A7CF8A
:101240002091000626FFA3CF81E390E0A0CFCF3B03
:10125000D10508F6C85AD0E0CC0FDD1FC258DE4FCA
:1012600088819981946493CFC11520E2D20760F4FC
:10127000C11531E0D30708F08ACFCE019065CD3E8D
:10128000D10508F084CFA7CFC11580E4D80708F4B2
:10129000A2CFCE019F70906A7ACFC11595E5D9078C
:1012A00010F5C11524E5D20708F088C0C11533E553
:1012B000D30708F06FC0C11582E5D80708F465C0F0
:1012C0009E012370332781E090E002C0880F991FB0
:1012D0002A95E2F7C695C69520E2C29FE001112447
:1012E0008C2B9D2B50C0C11599E5D907A0F4C115D1
:1012F00028E5D20708F067C0C11536E5D30708F026
:101300006ACF8C2F0E941F0890E0982F882788278B
:101310009F7190623CCFC1158AE5D80708F458C088
:10132000CE0190568115904208F055CF8D2F8F71C8
:101330000E941F0890E0982F882788279F718C2B88
:10134000E8CFC55AD0E0C558DE4F888190E0906460
:101350001ECF9E01E4E036952795EA95E1F72370CC
:101360008C2F86958695837030E2839FC00111246F
:10137000922BC37021E030E002C0220F331FCA95C8
:10138000E2F7822B932B9C6802CF9C2F8827816FDA
:10139000906AFDCE9E012370332781E090E002C069
:1013A000880F991F2A95E2F7C695C69530E2C39F2C
:1013B000E00111248C2B9D2B9A68E9CE9C2F882765
:1013C000846F906AE4CE9C2F8827806F906ADFCE6E
:1013D0008C2F8F700E941F0834E0D695C7953A95E0
:1013E000E1F7CF709C2F9069D2CE89E390E0CFCE09
:1013F00082EE90E0CCCE86EE90E0C9CEBF92CF9246
:10140000DF92EF92FF920F931F93CF93DF938C01A4
:10141000C0903F06D0904006E0904106F090420612
:101420008091EA059091EB05A091EC05B091ED0556
:10143000C82AD92AEA2AFB2ACFE1D0E0BC2ED7015C
:10144000C6010C2E04C0B695A795979587950A946A
:10145000D2F780FD0EC0219788F7B12C8B2DDF913C
:10146000CF911F910F91FF90EF90DF90CF90BF90A1
:101470000895B8018C2F0E946208019761F3EECFA6
:10148000CF93DF93EC010E94FE09BE01DF91CF9163
:101490000C9462080E94400A292F2F7092959F7029
:1014A00092509E3078F4E92FF0E0E852FD4C0C9415
:1014B000D12A803F19F020F4883E20F481E008957D
:1014C000843FE1F380E00895883EC0F3813FD1F787
:1014D000F5CF822F8695869586950895CF93DF93D5
:1014E0009C013A9521153F4168F5EC01CC27D1705C
:1014F000DC01AA27B270AC01442754709C0122275A
:10150000387094FF11C080E1CD2B09F480E0AB2B43
:1015100009F08062452B09F08064232B09F0806874
:10152000FB01DF91CF91099481E0CD2B09F480E09C
:10153000AB2B09F08260452B09F08460232B81F3EB
:101540008860EECFDF91CF910895DC01FB018081AF
:101550009181803891054CF08FE78C938081918147
:101560008F57910991838083089581382FEF9207D7
:101570003CF481E88C938081918181589F4FF2CF18
:101580008C93118210820895CF9384E090E00E94A2
:101590000E2BC82F81E290E00E940E2B982F8C2FEB
:1015A000CF910895CF93DF9300D00F92CDB7DEB7E0
:1015B00090915A06943019F589837B836A8382E07F
:1015C0008093E9008FEF9091E800815095FD06C06F
:1015D00095ED9A95F1F700008111F5CF8091E80023
:1015E00085FF0DC050E040E063E070E0CE01019661
:1015F0000E9444048091E8008E778093E8000F9069
:101600000F900F90DF91CF910895BC0184E00C946E
:10161000D20ABC0183E00C94D20A9C0182E0809340
:10162000E9009FEF8091E800915085FD06C085EDAF
:101630008A95F1F700009111F5CF8091E80085FFC0
:101640000CC050E040E066E070E0C9010E94440434
:101650008091E8008E778093E8000895CF93DF9320
:10166000EC0181E08093E9008FEF9091E8008150D8
:1016700095FD06C095ED9A95F1F700008111F5CF23
:101680008091E80085FF14C050E040E068E070E021
:10169000CE010E9444048091E8008E778093E80098
:1016A00088E0FE01A0E5B6E001900D928A95E1F791
:1016B000DF91CF9108958091050680FD0AC0E9EC85
:1016C000F1E0118210821282339652E0EB36F50778
:1016D000C1F7539A3BB1377F2BB128604FB7F894CD
:1016E00089EC91E0FC015191CF0168E02BB9000039
:1016F00000C057FF3BB9550F000000C000C000C03C
:101700003BB900C06A9591F7F2E08B369F0751F71D
:101710004FBF8FE594E00197F1F700C000000895F6
:101720008091C801811111C08091D800806180939F
:10173000D8008AE18A95F1F700C09091D900892FED
:10174000817090FF82E08093C80181E09091C80190
:10175000913009F080E00895CF92DF92EF92FF92EE
:101760006B017C010E94E406B701A60188E090E0CD
:10177000FF90EF90DF90CF900C94342B8F929F923C
:10178000AF92BF92CF92DF92EF92FF920F931F938F
:10179000CF93DF93D82FC62F142F822E00910506EA
:1017A00000FFCDC0E02FE695F0E0E758FE4F8081C6
:1017B00080930206802F8E7F8230E1F4E42FF0E0E8
:1017C000E652FE4F611146C02491F22FE22F00FF36
:1017D00011C0A9ECB1E08BE692E01196EC93119761
:1017E0002C931296FC93129713968A179B07A9F7CE
:1017F0000E945B0B809106068D1308C0809107063E
:101800008C1304C080910806811729F0809104068A
:10181000826080930406D0930606C0930706109357
:101820000806882009F48BC06091050670910606B1
:101830008091070690910806DF91CF911F910F913B
:10184000FF90EF90DF90CF90BF90AF909F908F90E0
:101850000C94AC0BE62EF12CE4919E2ECE2ED12CC6
:1018600026E0D29FC00111242FEF30E0B9010E9481
:10187000A92A8D2F90E0880F991FF5E5F69FA0010A
:10188000F79F500D1124841B950BB82EBB0CB80E7E
:10189000A9014E195F094C9DC0014D9D900D5C9DA5
:1018A000900D1124F92FCB9DA0011124452F552710
:1018B000D901A41BB50BAC9DA001AD9D500DBC9DE5
:1018C000500D1124D901AB19B1095D01AE9CD001B5
:1018D000AF9CB00DBE9CB00D1124AB2FBB272A1BB3
:1018E0003B0B2C9DD0012D9DB00D3C9DB00D1124C6
:1018F0002B2F62307105A1F050F46115710509F4C8
:1019000066CF6130710581F0292FF52F60CF6430EB
:10191000710569F080F06630710509F458CFF4CF95
:101920002E2FE92FFB2F53CF2E2FE52F50CF292F0E
:10193000FE2FEB2F4CCFE92FF92D252F48CFDF912C
:10194000CF911F910F91FF90EF90DF90CF90BF90BC
:10195000AF909F908F900895E5E0F6E0438121E1FC
:10196000421B08F440E021E0628181810C94BE0BAF
:10197000E5E0F6E0438121E1420F08F44FEF21E07A
:10198000628181810C94BE0BE5E0F6E0628121E189
:10199000621B08F460E021E0438181810C94BE0B5E
:1019A000E5E0F6E0628121E1620F08F46FEF21E0EB
:1019B000438181810C94BE0BE5E0F6E0818121E05A
:1019C0004381628188500C94BE0BE5E0F6E0818192
:1019D00021E043816281885F0C94BE0B80910906EF
:1019E000882319F081508093090660910506709153
:1019F000060680910706909108060C94AC0B809126
:101A00000906833018F48F5F8093090660910506FC
:101A10007091060680910706909108060C94AC0B15
:101A20008091050680FF1EC081708260809305064C
:101A300080910406816080930406662351F06091D2
:101A400005067091060680910706909108060E948F
:101A5000AC0B20E0409108066091070680910606D5
:101A60000C94BE0B0895809105068695815009F46B
:101A700081E061E00C94100D61E081E00C94100DA8
:101A8000E5E0F6E083E0808311828FEF8283838339
:101A90001482A2E0B6E012968C911297836012969F
:101AA0008C9360817181828193810C94AC0B6BEE7D
:101AB0007EEF90E080E00E94402B60E082E090E0CA
:101AC0000E94222B60E083E090E00E94222B109283
:101AD000EA051092EB051092EC051092ED0560E01E
:101AE00084E090E00E94222B60E081E290E00E947E
:101AF000222B60E085E090E00E94222B60E086E0EF
:101B000090E00E94222B6FEF87E090E00E94222B52
:101B100040E050E0BA0188E090E00E94342B60E0A1
:101B20008DE090E00E94222B40E050E0BA0188E175
:101B300090E00E94342B60E087E190E00E94222B2D
:101B400040E050E0BA018CE190E00E94342B60E06C
:101B500080E290E00E94222B40E050E0BA0188E150
:101B600090E00E94342B40E050E0BA018FE090E01A
:101B70000E94342B40E050E0BA0183E190E00C94E5
:101B8000342BCF93DF9300D000D00F92CDB7DEB7C8
:101B900019828A836B834C832D8324E630E045E0F1
:101BA00050E0BE016F5F7F4F84E10E9470280F906C
:101BB0000F900F900F900F90DF91CF9108951F928B
:101BC0000F920FB60F9211242F933F934F935F9371
:101BD0006F937F938F939F93AF93BF93EF93FF93F5
:101BE0008091E10082FF09C08091E20082FF05C080
:101BF0008091E1008B7F8093E1008091DA0080FF8B
:101C000024C08091D80080FF20C08091DA008E7FB0
:101C10008093DA008091D90080FF9BC080E189BD6C
:101C200082E189BD09B400FEFDCF81E080935A06B0
:101C300080914D06811109C00E94F4030E94BF04E7
:101C40008091E20084608093E2008091E10080FF57
:101C500017C08091E20080FF13C08091E2008E7F68
:101C60008093E2008091E20080618093E2008091A5
:101C7000D80080628093D80019BC85E080935A0612
:101C80008091E10084FF29C08091E20084FF25C09B
:101C900080E189BD82E189BD89B5982F917080FF6F
:101CA000FBCF8091D8008F7D8093D8008091E10098
:101CB0008F7E8093E1008091E2008F7E8093E2002E
:101CC0008091E20081608093E20080915B0688232E
:101CD00009F445C084E080935A068091E10083FFB7
:101CE00027C08091E20083FF23C08091E100877FBD
:101CF0008093E10082E080935A0610925B06809107
:101D0000E1008E7F8093E1008091E2008E7F8093DE
:101D1000E2008091E20080618093E20042E060E0B6
:101D200080E00E948D048091F00088608093F00034
:101D3000FF91EF91BF91AF919F918F917F916F91A3
:101D40005F914F913F912F910F900FBE0F901F9079
:101D5000189519BC10925A0610924D0676CF8091B4
:101D6000E30087FD93E090935A06B7CF0F931F933C
:101D70000E94900B882321F01F910F910C949205E3
:101D80000E9492050091F2051091F3052091F4054F
:101D90003091F505600F711F821F931F1F910F91E6
:101DA0000895CF92DF92EF92FF926B017C010E9427
:101DB000900B81110EC00E949205C61AD70AE80A3C
:101DC000F90AC092F205D092F305E092F405F09280
:101DD000F505FF90EF90DF90CF90089578941F92D3
:101DE0001FB61F9211248F939F93AF93BF9380913F
:101DF000EE059091EF05A091F005B091F1050196E7
:101E0000A11DB11D8093EE059093EF05A093F00501
:101E1000B093F105BF91AF919F918F911F901FBE1D
:101E20001F9018952FB7F8948091EE059091EF05CB
:101E3000A091F005B091F1052FBF08950E94120FF7
:101E40009C0190911E0680911F06982B21F03093E3
:101E50001B0620931A069091200680912106982B4C
:101E600021F030931806209317068CE196E00C942D
:101E7000C50690E080E00E94AF0690E080E00E94FE
:101E800099061092E8051092E6050E94C50586E0C5
:101E9000ECE1F6E0DF011D928A95E9F71092190650
:101EA0001092160610928E050C941E0F6093EA0590
:101EB0007093EB058093EC059093ED050C94390F2E
:101EC0001092E705EEEBF1E086E0DF011D928A95C6
:101ED000E9F70C94390F1F93CF93DF93CDB7DEB79B
:101EE000AA970FB6F894DEBF0FBECDBF8CE596E083
:101EF0002091F100FC012193CF01F6E084369F0789
:101F0000B9F780915D06833009F46FC0B8F4813071
:101F100009F446C0823009F4B0C08091E80083FF24
:101F20007BC280915C0690915D069A3008F074C285
:101F3000E92FF0E0EA51FD4C0C94D12A8A3009F4E3
:101F40008BC08B3009F46EC0893039F780915C0604
:101F5000813219F780916006909161060297E8F648
:101F60008091E800877F8093E8008091E80082FFFD
:101F700037C09091F3008091F200029729F480918C
:101F8000F1008B7F813021F48091F10080934F0626
:101F90008091E8008B778093E8000E946E04BDCFAB
:101FA00080915C06813A09F0B8CF8091E800877F84
:101FB0008093E8008091600690916106892B61F41E
:101FC00068E080E596E070E00E9420058091E800DE
:101FD0008B778093E800A1CF60E090E080E0F3CFC2
:101FE00080915A068111C1CF98CF80915C06813AC9
:101FF00009F093CF8091600690916106892B09F0DA
:102000008CCF8091E800877F8093E8008091E80082
:1020100080FFFCCF809163018093F1008091E80004
:102020008E77B9CF80915C06813209F076CF8091AE
:10203000600690916106892B09F06FCF8091E800CE
:10204000877F8093E8000E946E0480915E068093F3
:1020500063010E94600F61CF80915C06813209F0BC
:102060005CCF8091E800877F8093E8000E946E0437
:1020700080915F0680934E0650CF80915C06813A36
:1020800009F04BCF8091E800877F8093E800809132
:10209000E80080FFFCCF80914E06BECF803899F0DB
:1020A000823809F0B9C1809160068F70873008F0DE
:1020B000B3C18093E9008091EB0085FB882780F90C
:1020C0001092E90006C0809158069091590691112E
:1020D00082609091E800977F9093E8008093F100F0
:1020E0001092F1008091E8008E7792C1882309F464
:1020F00080C1823009F090C180915E06811183C158
:10210000809160068F702FEF280F263008F084C171
:102110008093E9002091EB0020FF75C1933031F4EA
:102120008091EB0080628093EB006DC19091EB0099
:1021300090619093EB0021E030E001C0220F8A957E
:10214000EAF72093EA001092EA008091EB008860A1
:10215000EACF811161C110915E061F778091E30083
:102160008078812B8093E3008091E800877F8093C3
:10217000E8000E946E048091E80080FFFCCF80910F
:10218000E30080688093E30082E0111183E0809394
:102190005A0642C18058823008F03EC180915E06E6
:1021A00090915F068C3D23E09207A1F583E08A833E
:1021B0008AE289834FB7F894DE01139620E03EE06F
:1021C00051E2E32FF0E050935700E49120FF03C069
:1021D000E295EF703F5FEF708E2F90E0EA30C0F035
:1021E000C7968D939D932F5F243159F74FBF8091F0
:1021F000E800877F8093E8006AE270E0CE010196F4
:102200000E9420058091E8008B778093E80004C14C
:10221000C096E7CF4091600650916106292F332781
:102220002330310509F444C078F52130310509F433
:102230006FC08BE390E0E5EEF6E02230310509F067
:10224000EBC02091E800277F2093E80020916206F0
:10225000309163068217930708F49C0140E0211532
:10226000310509F064C0411162C08091E80082FD2F
:10227000C9CF80915A06882329F2853019F28091BE
:10228000E80083FFF2CFBECF21323105A9F122321F
:10229000310509F0C1C04115510509F443C0413071
:1022A000510509F0B9C08BE790E0EAE2F6E0C9CF4A
:1022B000992781309105C1F0009759F0029709F0F4
:1022C000ABC0E2E3F7E0E4918E2F90E0E2E3F7E0C9
:1022D00007C0E2E5F7E0E4918E2F90E0E2E5F7E059
:1022E000009709F499C0ADCFE0E4F7E0E4918E2FB8
:1022F00090E0E0E4F7E0F4CF4115510571F0413092
:10230000510509F089C089E090E0E0E1F7E099CF5C
:1023100082E190E0E0E2F7E094CF89E090E0E7EF3F
:10232000F6E08FCF80E490E0E5EAF6E08ACF809196
:102330005A06882309F466CF853009F463CF80916B
:10234000E80083FD5FCF8091E80082FD8ECF809111
:10235000E80080FF84CF9091F3008091F200211576
:10236000310519F08830910550F041E0089709F0E7
:1023700040E08091E8008E778093E80070CF449130
:102380004093F1003196215031090196E8CF803811
:1023900009F042C08091E800877F8093E800809137
:1023A0005B068093F1009ECE811136C010915E06CF
:1023B000123090F58091E800877F8093E8001093B9
:1023C0005B060E946E04112311F084E005C0809129
:1023D000E30087FDFACF81E080935A0642E061EC8A
:1023E00081E00E948D0442E261EC82E00E948D0453
:1023F00013C080915E06813079F481E0933009F05A
:1024000080E0809359061092E9008091E800877F70
:102410008093E8000E946E048091E80083FF0AC068
:102420008091E800877F8093E8008091EB008062D4
:102430008093EB00AA960FB6F894DEBF0FBECDBF17
:10244000DF91CF911F9108951F920F920FB60F92B7
:1024500011242F933F934F935F936F937F938F93A9
:102460009F93AF93BF93CF93DF93EF93FF93D0915D
:10247000E900DF708091EC00C82FC17080FDC0E8DA
:102480001092E9008091F000877F8093F0007894AB
:102490000E946B0F1092E9008091F0008860809399
:1024A000F000CD2BCF70C093E900FF91EF91DF9149
:1024B000CF91BF91AF919F918F917F916F915F91DC
:1024C0004F913F912F910F900FBE0F901F90189535
:1024D0008823F1F19CEF980F913A78F4EEEBF1E05C
:1024E00024EC31E09191891303C0DF0111971C9214
:1024F0002E173F07B9F70C94C50590E2980F983056
:1025000088F4877021E030E0A90102C0440F551F14
:102510008A95E2F7CA0180959091E7058923809317
:10252000E705E9CF9BE5980F933020F490E080E039
:102530000C94AF0698E5980F973120F490E080E076
:102540000C9499068D3E20F00E94F3060C941E0F09
:102550000895CF93C82F882309F456C08CEF8C0FB1
:10256000813AF8F4EEEBF1E084EC91E0DF012D919B
:10257000C21759F08A179B07D1F76C2F8CEB91E0AB
:102580000E949E05CF910C94C5052191C21303C0F2
:10259000DF0111971C928E179F07B9F70E94C5059E
:1025A000ECCF80E28C0F883068F4C77021E030E017
:1025B00001C0220FCA95EAF78091E705822B80932C
:1025C000E705E0CFEBE5EC0FE33040F4F0E0E55851
:1025D000FE4F808190E0CF910C94AF06E8E5EC0FC0
:1025E000E73150F4F0E0EE0FFF1FE258FE4F80811C
:1025F0009181CF910C949906CD3E30F08C2F0E94A2
:10260000AE07CF910C941E0FCF9108951F93CF93D7
:10261000DF93182FD0E0C0E0893311F4C0E5D0E09B
:10262000812F0E94A912209731F4812FDF91CF9141
:102630001F910C9468128FE99FE00197F1F700C099
:1026400000002197F0CF0F931F93CF93DF93C62FF6
:10265000D42F022FFC0182818823A1F060936606AB
:102660000E94120F9093650680936406C77081E004
:1026700001C0880FCA95EAF7DF91CF911F910F91A2
:102680000C948F0680916606681335C080916406AD
:10269000909165060E9483058331914060F510E2B8
:1026A0001D0FCD17B9F080E28C0F883040F4C77051
:1026B00081E001C0880FCA95EAF70E9484061830AD
:1026C00048F481E09D2F977001C0880F9A95EAF732
:1026D0000E948F06802F0E940613183098F4D7703E
:1026E00081E001C0880FDA95EAF7DF91CF911F9161
:1026F0000F910C948406C77081E001C0880FCA95C1
:10270000EAF7F3CFDF91CF911F910F9108950F93C7
:102710001F93CF93DF938C01EB018091560182FFD1
:102720002DC08B7F8093560180918B052091890568
:1027300030918A05AB01421B530B2091540130911B
:1027400055014217530778F40E94A912809156014F
:102750008D7F8093560180918B050E94681282E0E4
:102760000E94BE0515C09091E80592609093E8051F
:102770000E94A912809156018260EBCF802F0E94A7
:10278000681280918B0590918C050817190739F311
:102790000E94C505D0938A05C0938905DF91CF912A
:1027A0001F910F910895CF93DF93EC01805E910903
:1027B000089720F06AE776E0209711F46FE876E05A
:1027C000CE010E946E0A8C2FDF91CF910C94A9123A
:1027D000CF9390918205992321F0811116C0109218
:1027E0008205CF910895EC2FF0E0EE0FFF1FEE5819
:1027F000FA4F808191810E94D3130E94C505CF5F5B
:1028000080918205C81778F3EACFC0E0F9CF109223
:10281000830510925801109285051092840581E07D
:102820000C94E813CF92DF92EF92FF926B017C0140
:102830000E940714C114D104E104F10471F0D7011E
:10284000C60123E0B695A795979587952A95D1F768
:1028500080FF03C081E080935801C0923F06D09270
:102860004006E0924106F0924206FF90EF90DF9022
:10287000CF900C94390F0F931F9341E050E060E02C
:1028800070E004C0440F551F661F771F8A95D2F76A
:10289000CB01BA01609570958095909500913F06A7
:1028A0001091400620914106309142066023712329
:1028B000822393231F910F910C9412149091E5059C
:1028C000809589238093E505282F277071F4282FA0
:1028D000082E000C330B9217130639F08595859559
:1028E00085950E943B141092E50508950F931F9360
:1028F00041E050E060E070E004C0440F551F661FE7
:10290000771F8A95D2F780913F0690914006A0915B
:102910004106B09142068A019B01082B192B2A2BF4
:102920003B2BC901B8011F910F910C94121460E068
:1029300070E0CB010C9412142F923F924F925F9251
:102940006F927F928F929F92AF92BF92CF92DF92BF
:10295000EF92FF920F931F93CF93DF93CDB7DEB724
:1029600066970FB6F894DEBF0FBECDBF7C01FC01A9
:1029700083819481892B41F01081B180812F8B213B
:102980008F3F11F00C940B1D66960FB6F894DEBFC6
:102990000FBECDBFDF91CF911F910F91FF90EF90B0
:1029A000DF90CF90BF90AF909F908F907F906F906F
:1029B0005F904F903F902F9008950E94FE09082F3E
:1029C000682F89819A810E941B06E12FF0E026E0A2
:1029D000B29EE00DF11D112430E3039FE00DF11DC7
:1029E0001124EE0FFF1FE657FC4F059114918091C3
:1029F00071058111E3C0F701828181110CC005309E
:102A0000FDE51F0709F4A8C008F065C004303DE5E6
:102A1000130709F486C010928805083F2CE51207B9
:102A200009F05AC1F7018281882309F46DC181E060
:102A3000809358010E94120F5C01F7018281882364
:102A400011F18091560182FF05C0B50190E080E050
:102A50000E94871382E00E94BE050931FCE51F0732
:102A600009F4BAC208F041C207313CE5130709F482
:102A7000A9C28091540190915501059708314CE508
:102A8000140709F4A4C20933110508F05EC30D321E
:102A9000110520F40B32110509F05BC3F7018281A7
:102AA000882309F46CC38091560180FF3DC2909148
:102AB000E7059D7F09F038C210938C0500938B05C4
:102AC000B0928A05A092890584608093560182E0C5
:102AD0000E945E1433C007304DE5140709F448C066
:102AE00008305DE5150709F096CFC0900001D09041
:102AF000010180903F0690904006A0904106B09062
:102B000042060E94600F0E94971409E615E0C01665
:102B1000D10609F442C0C8010E949C140650110954
:102B2000F6CF0E94600F0E9497148FE692E0909378
:102B3000700580936F0581E0809371058091E505B4
:102B4000877009F421CFF7018281882309F41CCF13
:102B500082E00E945E1418CF0E94600F0E949714BA
:102B600089E695E09093700580936F0582E0E4CF4D
:102B7000C0900201D090030180903F0690904006E3
:102B8000A0904106B09042060E94600F0E949714E8
:102B90000FE612E0C016D10659F40E94600F809231
:102BA0003F0690924006A0924106B0924206C6CFE0
:102BB000C8010E949C140A5F1F4FECCF980124505B
:102BC0003D4523303105C8F591E006301D4509F437
:102BD00090E0F7012281291709F4B0CF813029F064
:102BE0008230B9F010927105A9CF80916F05909154
:102BF0007005F2E08F369F0729F0FC01369722819D
:102C0000211105C09093030180930201EBCFCF0106
:102C1000F0CF80916F059091700525E0893692077D
:102C200029F0FC0136962281211105C09093010103
:102C300080930001D7CFCF01F0CF813031F18230C6
:102C400009F0E9CE2091020130910301A0916F05B6
:102C5000B0917005F7018281811105C0F5E0A936B8
:102C6000BF0709F4D8CECD0106962817390709F415
:102C7000D2CE86E0F70101900D928A95E1F780911E
:102C80006F0590917005069722C020910001309148
:102C90000101A0916F05B0917005F701828181114A
:102CA00005C0F2E0AF36BF0709F4B5CECD010697F7
:102CB0002817390709F4AFCE86E0F70101900D928D
:102CC0008A95E1F780916F05909170050696909333
:102CD000700580936F059FCE093FFCE51F0739F40F
:102CE000F7018281882381F00E940714A3CE80918E
:102CF00058010A3FFCE51F0739F4F7019281992337
:102D000019F08111F1CF93CE50905801552009F45C
:102D100091CE1092870510928605412CE5E03E2E5B
:102D200066246394712CA0908605B090870580E19D
:102D3000A816B10488F080918805882309F4A4C0FE
:102D40000E94120F909385058093840580E00E9475
:102D5000E8134110F3CE6ECE3A9CF0013B9CF00D8F
:102D60001124EC5FFE4F208131819FEF80E0E82F3E
:102D7000F0E0EE0FFF1FE20FF31F4591549104178F
:102D8000150709F4982F452B11F08F5FF0CF9F3F67
:102D9000E9F4212C4228552059F03A9CF0013B9C43
:102DA000F00D1124EC5FFE4F552453948481811162
:102DB000512C552D5170552E809186059091870587
:102DC00001969093870580938605ADCF209083056B
:102DD000F70132813A9CF0013B9CF00D1124EC5F2D
:102DE000FE4F2481A30102C0440F551F9A95E2F7BC
:102DF0005E8B4D8B3323D1F0242B2483222049F288
:102E0000A30102C0440F551F8A95E2F7CA0101973A
:102E10002817190609F0BECF82819381009711F01F
:102E20000E94D31351E050938805B4CFA30102C090
:102E3000440F551F8A95E2F7CA0101972817190612
:102E400009F5828093808114910479F0882D0E9485
:102E50006812C401805E910964E876E0089710F07A
:102E600063E776E0C4010E946E0A3A9CF0013B9C45
:102E7000F00D1124EC5FFE4F8D898095948189239C
:102E8000848388CF212CF1CF41100EC081E00E94B5
:102E9000E813552009F4CECD1092850510928405D3
:102EA00081E080938305C6CDF7018281882309F4F0
:102EB00045CE80918305882309F440CE0E94120FED
:102EC0009093850580938405E0918205E83008F0B1
:102ED00035CE81E08E0F80938205F0E0EE0FFF1F6C
:102EE000EE58FA4F1183008329CE0B315CE51507AC
:102EF000B1F070F0809156018E7F0C319CE519077E
:102F000009F0C1CD8093560182E00E94BE050CC03D
:102F100090915601892F8E7F90FF8160F3CF809131
:102F20005601816080935601F7019281992309F43B
:102F300088C5109266060230FCE51F0708F423C21C
:102F400006312CE5120738F098012B5F3C452930FB
:102F5000310508F018C20E94C40A909301068093BC
:102F6000000600313CE5130709F4DCC108F06DC12F
:102F700008305CE5150709F4C7C108F03CC104300E
:102F80009CE5190709F4B8C108F022C10230FCE53C
:102F90001F0709F4ABC180910006826003301C4515
:102FA00009F4A7C1609100061091010684E090E049
:102FB0000E94222B612F81E290E00E94222B0E942E
:102FC000600FBCCD8091540190915501059690936E
:102FD000550180935401A8CF809155018F93809122
:102FE00054018F9384E791E09F938F931F9288E021
:102FF0008F93DF92CF920E9437300FB6F894DEBFE6
:103000000FBECDBF56015AE0252EF50120812223A7
:1030100009F48ACF213009F046C091818281913034
:1030200031F4F2E0AF0EB11C0E94061307C09230DB
:1030300049F422E0A20EB11C0E94A9123FEFA31A8C
:10304000B30AE3CF933031F432E0A30EB11C0E94F7
:103050006812F4CF943021F04FEFA41AB40AEECFE7
:1030600052E0A50EB11C30E020E0A5014F5F5F4F9C
:103070008053990B8A30910550F021503109F0F2BC
:103080008FE99FE00197F1F700C00000F6CF229E84
:10309000B001239E700D11249C01260F371FF501EE
:1030A00081815A01E2CFE22FF0E0E65FFC4F3490DD
:1030B000822F86958695869590E0FC01E650FD4F1F
:1030C00044902770512C022E02C0559447940A94C4
:1030D000E2F7E1E04E225524FC01E651FD4F6490F9
:1030E000712C022E02C0759467940A94E2F7F1E005
:1030F0006F227724FC01E652FD4F8490912C02C090
:10310000959487942A95E2F721E08222992441142C
:10311000510419F081EE0E94A9126114710419F092
:1031200086EE0E94A912832D0E940613672819F0CB
:1031300086EE0E946812452819F081EE0E946812FE
:10314000892809F47BCF8CE26FCF0436110509F48E
:10315000A5CC043FFCE51F0761F1B0F4093D3CE557
:10316000130719F10A3D4CE5140779F1083D5CE5B8
:10317000150709F0D9CE26E241EE61EE12C0B50185
:10318000C8010E948713DACC063F8CE51807C9F006
:10319000A0F027E245EE66EE073FECE51E0709F0DA
:1031A000C3CEC7010E942313C9CC27E245EE65EECA
:1031B000F8CF26E241EE60EEF4CF27E245EE64EE72
:1031C000F0CF26E241EE62EEECCF28E241E0EFCF15
:1031D00080910006806106303CE5130709F489C040
:1031E00080910006886007301C4508F482C08091F9
:1031F000000680627EC0809100068D7F0C305CE509
:10320000150709F476C070F4809100068C600A30CE
:103210009CE5190709F46DC008F47AC08091000696
:103220008E7F67C080910006877F0E30FCE51F0708
:1032300009F45FC0809100068B7F0F301C4508F4B5
:1032400058C0809100068F7E54C00C3F3CE51307A8
:1032500009F456C030F503315CE5150709F46AC07E
:1032600078F401319CE5190709F460C002311C456E
:1032700009F098CE0E94600F809100068F7739C0C8
:103280000531FCE51F0709F45DC008F471C08091A9
:10329000010681600B3F1C4509F084CE8093010636
:1032A00081CE01154DE5140709F448C070F40E3FB6
:1032B0008CE5180799F1809101068E7F0F3F1C4520
:1032C00068F3809101068360E9CF0230EDE51E07C7
:1032D00009F457C008F442C060E003301D4509F00E
:1032E00061CE8EE090E00E94222B5CCE80910006A1
:1032F00081608093000656CE809100068460F9CFED
:10330000809101068260CACF809100068064F1CF6F
:103310000E94600F809100068068EBCF80910106CB
:103320008D7FBCCF809100068F7DE3CF809100061A
:103330008F7BDFCF80910006837FDBCF80910106FA
:103340008C7FACCF8091000682FB992790F921E019
:10335000922790FB82F990FB83F9CBCF80910106F5
:10336000982F909591708E7F892B90FB81F996CF45
:103370000E94600F90910006892F97FB87F9805873
:10338000B8CF61E0AECF06313CE5130709F06BC35F
:103390008091E7058A7A91E009F490E090938D0599
:1033A00069E2811165E38CEB91E00E949E050E9429
:1033B000C505C4CB80918D0581110FC089E2EEEB6C
:1033C000F1E024EC31E09191891303C0DF01119702
:1033D0001C922E173F07B9F7EACF85E3F0CF809113
:1033E000050680FF1EC08E7F80930506609105064E
:1033F0007091060680910706909108060E94AC0B1A
:10340000809104068160809304064FEF50E782E0CC
:10341000415050408040E1F700C000000E945B0B2B
:103420008DCB81608093050661E086950E94100D2A
:1034300085CB43E35DE06CE37DE00E94DF067ECB5D
:103440004CE35DE063E37DE0F8CF4CED5CE065EEDE
:103450007CE0F3CF45EE5CE06CED7CE0EECF44EC3D
:103460005CE060ED7CE0E9CF40ED5CE064EC7CE0AA
:10347000E4CF4CEA5CE068EB7CE0DFCF48EB5CE05B
:103480006CEA7CE0DACF4EEE5CE06FEF7CE0D5CF0B
:103490004FEF5CE06EEE7CE0D0CF61E081E0C6CF24
:1034A0000E94600F9FEFE4E3FCE09150E040F040A9
:1034B000E1F700C0000087E797E790930108809349
:1034C000000888E19AE00FB6F894A8958093600010
:1034D0000FBE90936000FFCF0E94570D2FCBC80105
:1034E0000E94F205B82ED6C2212F2F70822E107F97
:1034F00019F0829420EF8222BB20C9F0882069F065
:1035000080E2800F883010F061100BC08091E705D9
:10351000882A8092E7050E94C505802F0E94A91283
:1035200018C08091E805882A8092E805F4CF802FA2
:103530000E946812882069F0005E083010F0611067
:1035400046C080948091E70588228092E7050E941A
:10355000C505292D2850330B2430310510F40E9465
:10356000D306AA20A9F08091E50580FD11C0F701DE
:1035700012828595859585950E947614C7010E94D3
:103580009C148091E5058595859585950E943B1451
:1035900085E0F701D60101900D928A95E1F78981C6
:1035A0009A810E94F2059A81E981F0E026E0929FDB
:1035B000E00DF11D112430E3839FE00DF11D112476
:1035C000EE0FFF1FE657FC4F85919491DDC9882DC2
:1035D0000E94BE05BCCF312F3F70732E107F10327A
:1035E00019F0729490EF7922662071F041E0641630
:1035F00061F1BB20B9F1882071F1F701858180FF6D
:103600008CCF8F70858327C0BB2091F09091E90506
:10361000872D892B811003C00E948F069ACF51E01D
:103620008512FACF981709F494CF8093E90591CFCA
:10363000811006C00E94B805872D0E94840689CF9C
:1036400081E0881609F485CFF5CFBB2031F095E0F5
:10365000981508F47ECF872DDFCFE4E0E81508F455
:1036600078CFEACF882041F3F9E36F1209C02FEF3A
:1036700037EE43E0215030404040E1F700C0000009
:10368000802F0E94681265CF812F86958695837062
:1036900061F0813009F05DCFC8019370B11002C0B4
:1036A00090E080E00E94990654CFC8019370B11059
:1036B00002C090E080E00E94AF064BCF802FBB207D
:1036C000A9F10E94AE07015F110B08301105A0F5AA
:1036D00081E090E001C0880F0A95EAF726E0E2E376
:1036E000F6E0DE01199601900D922A95E1F726E0A9
:1036F000FE013996DE011F9601900D922A95E1F7A1
:103700002A85BB20B1F0822B888B86E0FE013F9694
:10371000D60101900D928A95E1F786E0F601A2E3C9
:10372000B6E001900D928A95E1F713CF0E94F3065F
:10373000CACF80958223E8CF0E941E0F0ACF812F27
:10374000837009F066C0B11004CF802F82958695F2
:103750008770880F880F602F6F70462E512C712C48
:10376000612C082E04C0440C551C661C771C0A945E
:10377000D2F740E050E0BA0104FF0FC04FE050E044
:1037800060E070E004C0440F551F661F771F8A95E4
:10379000D2F74095509560957095812F86958695C6
:1037A0008370823019F1D8F40091EA051091EB058D
:1037B0002091EC053091ED05813069F044295529BF
:1037C00066297729CB01BA016023712382239323D1
:1037D0000E94560FBECE402A512A622A732ACB017C
:1037E000BA016429752986299729F2CF44295529D8
:1037F000662977290091EA051091EB052091EC05E7
:103800003091ED05CB01BA016027712782279327FC
:10381000DFCF8695BB2011F0812F8170882309F4BA
:1038200098CE802F829586958770880F880F602F9D
:103830006F70462E512C712C612C082E04C0440C44
:10384000551C661C771C0A94D2F740E050E0BA0180
:1038500004FF0FC04FE050E060E070E004C0440F90
:10386000551F661F771F8A95D2F740955095609532
:103870007095812F869586958370823019F1D8F4E2
:1038800000913F061091400620914106309142067A
:10389000813069F04429552966297729CB01BA017D
:1038A00060237123822393230E94121452CE402A54
:1038B000512A622A732ACB01BA0164297529862903
:1038C0009729F2CF442955296629772900913F0687
:1038D000109140062091410630914206CB01BA0179
:1038E0006027712782279327DFCF1F70BB2029F025
:1038F000812F0E947614802F8FCE802F0E94840605
:10390000812F0E943B1425CE802F52EF651609F4BB
:1039100050C0561578F090EF691619F1E1EF6E1668
:1039200009F43FC0BB2009F466C08110F6CD812F99
:103930008F713CC0F3EF6F1609F440C024EF6212A0
:10394000F1CFBB2009F44CC01F71812F0E94761467
:1039500058E0159FC001112483608093E505812FF5
:1039600025C0BB20C9F034E0381508F4F2CD1F7132
:1039700061E070E080E090E004C0660F771F881F70
:10398000991F1A95D2F700913F0610914006209199
:10399000410630914206A4CF45E0481508F4D9CD40
:1039A000E6CF812F8F71BB2009F4ABCF0E94761434
:1039B000D0CD812F8F71BB20C9F3A3CFBB2069F07D
:1039C0001F7161E070E080E090E004C0660F771F37
:1039D000881F991F1A95D2F767CF0E949714B9CD07
:1039E00081E00E945E1481E0881508F0B2CD82E08B
:1039F0000E945E14AECD882059F0893309F040CE84
:103A00009FEFE7EEF3E09150E040F040E1F736CE73
:103A1000812F8F7176CF85E0AE014F5F5F4F6A01D6
:103A2000DA0101900D928A95E1F7F70122818981EF
:103A30009A8121110C94DD140E94F205082F0C9438
:103A4000E5140631FCE51F0709F4B4CC8091E705C5
:103A50008272F801E35CFC45E431F10568F4E05161
:103A6000FD4C0C94D12A01152CE5120709F418CD50
:103A70000F3D1C4509F430CDF701008111819923D8
:103A800009F42DCDC8010E94FE09B82E682FC80187
:103A90000E941B06B8018B2D0E9462088C01682EC3
:103AA000F701B280858082944FE084228091E50501
:103AB0008770A1F0AB2CBB2091F0812F807F8034E8
:103AC00021F080E2800F883048F082E00E945E148E
:103AD0008091E5058770AA24A3948111A12C912ED1
:103AE00092943FE09322FBE0F91508F432CDE92DE2
:103AF000F0E0EC5FFC4C0C94D12A1F93CF93DF9342
:103B000080919405807FA9F480919105882389F0A4
:103B10008091C605D091950560918F0570919005B3
:103B2000A0919205B0919305C62FC72316E0D81334
:103B300004C0DF91CF911F91089590E0109711F08C
:103B4000CF3F19F401968770F2CF189F9001199F0B
:103B5000300D1124F901EA56FA4F41814713F2CF93
:103B600040814613EFCF42814111ECCF4381548114
:103B70004A1B5B0B4331514028F7809194058F70AD
:103B8000806180939405F901E556FA4F80818F702A
:103B9000806180838FE895E00E949C14DF91CF9133
:103BA0001F910C9469068F929F92AF92BF92CF9211
:103BB000DF92EF92FF920F931F93CF93DF93CDB7D6
:103BC000DEB761970FB6F894DEBF0FBECDBF8C0194
:103BD00085E0F801DE011D9601900D928A95E1F7CE
:103BE000D801EC901196DC9011971296CC90129718
:103BF0008FE8882E85E0982E40919205509193058C
:103C00004115510509F444C190918F05209190050B
:103C1000892F82238F3F09F43BC11396AD90BC904E
:103C20001497F0909105F501E41BF50BAF01FF200F
:103C300009F4FFC080919405382F307F4331514003
:103C400008F0C8C0311185C0FC2C2D1124C09E1174
:103C500022C0C11020C08F70806180939405C40180
:103C60000E949C1480919405D80115968C938F2DF9
:103C700061960FB6F894DEBF0FBECDBFDF91CF9136
:103C80001F910F91FF90EF90DF90CF90BF90AF907A
:103C90009F908F900895A114B10429F08E2D8D214D
:103CA0008F3F09F016C180E080FF14C04C2D6D2DB0
:103CB0008E2D0E944906882369F08FE895E00E94C6
:103CC0009C1486E0EFE8F5E0DF011D928A95E9F7A4
:103CD000F12CCDCFAB2829F08E2D8D218F3F09F00F
:103CE000F5C080E0B82FB170AB2E80FF29C04C2DFD
:103CF0006D2D8E2D0E944906B82E811121C0ED86B2
:103D0000DE868D859E850E94400A292F22952F7080
:103D1000223050F0243078F49F7051F0F8019581F2
:103D2000907F31F4FB2CA3CF9F7011F08823D1F347
:103D3000805E8830B8F3C8010E949C14BA2CF2CF80
:103D4000CC2009F494CF80919405816080939405F0
:103D5000BFCF2D1112C09E1110C0C1100EC01596FC
:103D60008C93C8010E949C1486E0F801AFE8B5E08E
:103D700001900D928A95E1F77ACFED86DE868D85EA
:103D80009E850E944A0A882309F1CC20F9F080918F
:103D90009405803270F020918F053091900538871E
:103DA0002F831986BB86AA868C87CE0107960E9430
:103DB0009C1486E0F801AFE8B5E001900D928A9579
:103DC000E1F70E947D1DFF24F39451CFC8010E94AA
:103DD0009C14F9CF332309F470CF2D110FC09E111D
:103DE0000DC0C1100BC0F8018583C8010E949C144E
:103DF00086E0D4011D928A95E9F739CFED86DE86FB
:103E00008D859E850E944A0A882301F3CC20F1F219
:103E100080919405803268F220918F053091900551
:103E20003A8329831B82BD82AC828E83CE010196A8
:103E3000BECFE331F140E0F6FC2CCC2039F22D115D
:103E400016C09E1114C08091940580FD8DCF982FCF
:103E5000907F09F489CFF8018583903F09F481CFE1
:103E6000982F907F905F8F70892B85837ACFED8616
:103E7000DE868D859E850E944A0A81119ACF8091A7
:103E80009405816080939405C8010E949C14EFCE34
:103E9000CC2009F49BCFED86DE868D859E850E9421
:103EA0004A0AF82E882309F491CF86E0F801AFE89A
:103EB000B5E001900D928A95E1F780918F05909180
:103EC00090050E94400A0E947D1DD1CE81E08C2584
:103ED00009CF81E08C25E8CE1F93CF93DF93CDB738
:103EE000DEB767970FB6F894DEBF0FBECDBF342F95
:103EF0004B8B252F5C8B6D8B7E8B8F8B8E899F8957
:103F000061111092E8051A8A198A3D872E876F87FA
:103F1000998B888B86E0FE013D96DE011796019015
:103F20000D928A95E1F7CE0107960E94D31D882352
:103F300089F016E08091C60590919505891349C0D6
:103F400067960FB6F894DEBF0FBECDBFDF91CF915D
:103F50001F91089586E0FE013796DE0111960190CB
:103F60000D928A95E1F78A859B85892B11F38F81C4
:103F7000988589238F3FE9F22091950530E0C901AA
:103F80000196877099274091C6054817190671F464
:103F90000E94600F109295051092C60586E0EFE82A
:103FA000F5E0DF011D928A95E9F7C3CF96E0929F75
:103FB000D001939FB00D1124AA56BA4FFE0131963D
:103FC00001900D929A95E1F7809395050E946906FC
:103FD000B0CF819FC00111248A569A4F0E94D31DF1
:103FE000882309F4ADCF8091C60590E001968770D3
:103FF00099278093C6059ECFAF92BF92CF92DF9252
:10400000EF92FF920F931F93CF93DF9300D000D0D6
:10401000CDB7DEB78CEAE82E81E0F82E96EFA92E18
:1040200095E0B92E00E0CC24C394D12CF701819106
:104030007F01F894E82FE295EF70F0E021A18F70F6
:10404000A60102C0440F551F8A95E2F7CA01922FBC
:10405000982B91A392A18095892382A3789400C084
:10406000E4EBF1E030E020E010E04191A42FA295D4
:10407000AF70B0E090968C9190E04F7002C0959533
:1040800087954A95E2F780FD4CC08C2D022E01C029
:10409000880F0A94EAF7182B2F5F3F4F263031051F
:1040A00021F7F701319780810E94080850EA5A955C
:1040B000F1F7F50180811817B1F1108381E0082B29
:1040C000FFEFAF1ABF0A40EBE41641E0F40609F037
:1040D000ADCF1091FF05002341F181E08093C6012F
:1040E0000E94120F9093C5018093C4018091C40176
:1040F0009091C5010E9483050697D8F0E12FF0E06A
:10410000E25FF94F8091F60580838091F705818306
:104110008091F80582838091F90583831092C6010E
:1041200008C080E0B8CF80E0CACF8091C60181117D
:10413000DDCF0E94900B182F6091FF05882309F4B2
:104140008AC019821A821B821C82862F90E0BE01CF
:104150006F5F7F4F825F994F0E944C2781115BC038
:104160008091C7018F5F8093C701863008F471C0CA
:10417000E091FE05F0E0E25FF94FDE011196CE011D
:10418000059611921D928A179B07D9F780915801C5
:10419000882399F080918305882379F080918405A4
:1041A00090918505009749F00E948305CD9728F0EE
:1041B0001092830581E00E94E8138091560182FFEE
:1041C00017C00E94120F2091890530918A05AC0119
:1041D000421B530B20915401309155014217530754
:1041E00038F0BC0180918B0590918C050E9487135B
:1041F000011101C0012F802F0F900F900F900F9091
:10420000DF91CF911F910F91FF90EF90DF90CF90B2
:10421000BF90AF9008951092C701A091FE05B0E045
:10422000A25FB94FBE016F5F7F4F9E012B5F3F4F73
:1042300010E04D91FB019191BF01491731F0AD01A3
:1042400041505109FA019083182F6217730789F7BB
:104250009DCF10E09BCF70E0625F794F8091FE05AB
:1042600090E0825F994F0E947727C2CFCDB7DEB72B
:10427000E2970FB6F894DEBF0FBECDBF84B7877F3D
:1042800084BF0FB6F894A8958091600088618093F0
:104290006000109260000FBE80E890E00FB6F894C6
:1042A00080936100909361000FBE85B7806885BFE1
:1042B00085B7806885BF8EE795E09093BB018093BA
:1042C000BA010E94F4030E94BF048091E20084605E
:1042D0008093E200789480915A068823A1F010918F
:1042E000E9001F709091EC00892F817090FD80E8AB
:1042F000182B1092E9008091E80083FD0E946B0F5B
:104300001F701093E90082E084BD93E095BD9AEFA1
:1043100097BD80936E001092F2051092F3051092F3
:10432000F4051092F5050E94900B809357010E94AE
:10433000900B81110E942327809157018091570192
:1043400094E0811190E09093FF0584E0891B8093B5
:10435000FE0584E90E94080886E60E94080887E9AD
:104360000E94080886EC0E94080884EF0E94080852
:1043700085EF0E94080886EF0E94080887EF0E94D8
:10438000080881E30E94080883E30E940808E6EF1A
:10439000F5E08EEF95E0AEE0B6E011921D928E173B
:1043A0009F07D9F790E080E00E941C2B8B3E9E4F28
:1043B00011F00E94570D0E94900B811102C00E94C3
:1043C000292790E080E00E941C2B8B3E9E4F11F02D
:1043D0000E94570D82E090E00E940E2B80934406CD
:1043E0000E94C40A909301068093000683E090E047
:1043F0000E940E2B682F70E090E080E00E94560F24
:10440000C0903F06D0904006E0904106F0904206F2
:104410000E940714C114D104E104F10461F013E017
:10442000F694E794D794C7941A95D1F7C0FE03C0C9
:1044300081E08093580180910A06811139C090E093
:1044400080E00E941C2B8B3E9E4F21F00E94570D56
:104450000E94400D88E090E00E94162B60930506B4
:1044600070930606809307069093080680910406D1
:104470008360809304066E7F71F40E94400D88E093
:1044800090E00E94162B60930506709306068093B9
:104490000706909308060E94E4068091050680FFB7
:1044A00004C060E086950E94100D81E080930A06AA
:1044B0000E94972720E04AE260E080E00E94C10D60
:1044C00089E591E090930C0680930B068EE096E0D0
:1044D000F8E0F80FFAABCE0101961C0180915A0664
:1044E00000E112E1853009F469C20E94FC1F8111CC
:1044F0000E949205A5E4B6E0EEE0F6E010E000E0F0
:10450000C02EE1908D918E1509F467C28E25D12CB5
:10451000FF24F394982F9F2109F45AC20E94900B14
:10452000882399F0DF8EC8A2EF2081E009F480E0B3
:1045300089A30E94120F8160782F9BA38AA34F8DBD
:1045400058A169A18BA10E946C1FF801EB5BF94F88
:104550008081F826F08286E0ECE1F6E0D10101905E
:104560000D928A95E1F7F0901E06E0901F061091DB
:1045700020060091210610921E0610921F0610922E
:104580002006109221068F2D8E2909F448C08091B3
:104590001A0690911B060E9483059C0190911906B2
:1045A000992309F4D5C32D313105C8F19F3F19F086
:1045B0009F5F90931906FF2059F00E948E079FEF8E
:1045C0001F140CF491E0899F802D112480931E0606
:1045D000EE2059F00E948E079FEF1E140CF491E01C
:1045E000899F802D112480931F0630911E0633234E
:1045F000B1F020911F06222391F045EB3403C00156
:104600001124992309F400C290931E0645EB24035C
:1046100090011124332309F4FBC130931F06812F2D
:10462000802B09F448C080911706909118060E94CB
:1046300083059C0190911606992309F484C32536BD
:104640003105C8F19F3F19F09F5F90931606112323
:1046500059F00E946C079FEF11160CF491E0899FAE
:10466000802D112480932006002359F00E946C07AE
:104670009FEF10160CF491E0899F802D11248093F8
:104680002106309120063323B1F020912106222308
:1046900091F045EB3403C0011124992309F4BCC106
:1046A0009093200645EB240390011124332309F451
:1046B000B7C13093210680911E0690911F06892B69
:1046C00090912006892B90912106892B11F00E9450
:1046D0001E0F86E0F101ACE1B6E001900D928A95E3
:1046E000E1F786E0E2E3F6E0DE01539601900D92F9
:1046F0008A95E1F786E0FE017396D10101900D9253
:104700008A95E1F786E0F101DE01599601900D925C
:104710008A95E1F78A8189A79B819EA7EC81EFA703
:10472000FD81F8AB2E8129AB0E94900B882309F400
:1047300099C1198204E610E021E030E0A10169EF9F
:1047400084E10E949728898180FF73C1809130069F
:1047500090913106009709F067C10E94120F8160A5
:10476000909331068093300685E0F10111928A958D
:10477000E9F704E610E025E030E0A10164E084E11F
:104780000E9497286B819C811A8109818D8180FD0F
:10479000BEC1691B770B072E000C880B990B0E947A
:1047A000E02C6AA77BA78CA79DA7812F801B990B64
:1047B000BC01072E000C880B990B0E94E02C4B01CA
:1047C0005C012AA53BA54CA55DA5CA01B9010E94C3
:1047D000DF2D6B017C01A5019401C501B4010E948C
:1047E000DF2D9B01AC01C701B6010E94572B0E942F
:1047F000AA2E6B017C0120E030E040EC5FE30E94D8
:104800004C2E2B013C0120E030E040E050E4C70199
:10481000B6010E94D22D18160CF08AC100912E0606
:1048200010912F06C8010E948305892B09F079C1D8
:104830000E94120F90932F0680932E06A7019601D7
:10484000C701B6010E94572B20E030E040EC5FE347
:104850000E944C2E9B01AC01C301B2010E94572B58
:104860006B017C012AA53BA54CA55DA5C501B40142
:104870000E94D62B20E030E0A9010E94572B2B018B
:104880003C010E94352C9B01AC01C701B6010E947E
:10489000DF2D4B015C0160912C0670912D06072ED7
:1048A000000C880B990B0E94E02CA50194010E943A
:1048B000572B0E94A82C70932D0660932C06C301E1
:1048C000B2010E949C2E9B01AC01C701B6010E945F
:1048D000DF2D6B017C0160912A0670912B06072E5B
:1048E000000C880B990B0E94E02CA70196010E94F6
:1048F000572B0E94A82C70932B0660932A06609178
:10490000280670912906072E000C880B990B0E942F
:10491000E02CA70196010E94562B0E94A82C7093B0
:104920002906609328066091260670912706072EB7
:10493000000C880B990B0E94E02CA50194010E94A9
:10494000572B0E94A82C709327066093260671C0EF
:1049500080915A06843021F110920D06E8E1F0E0D2
:1049600020E40FB6F894A895E09360000FBE209362
:10497000600083B7817F846083BF83B7816083BF1A
:104980007894889583B78E7F83BF0FB6F894A895E7
:1049900080916000886180936000109260000FBE7B
:1049A00080915906882351F00E94FC1FEEE0F6E04A
:1049B00081918111B2C14AA94E13FACF80915A0652
:1049C000853009F4C5CF0E94600F0E94D3068DCDBB
:1049D000D394FF0C96E0D9129DCD0F5F1F4F083086
:1049E000110509F08DCD8FEF8CA38DA31EA20E941F
:1049F000120F8160782F98A78FA34CA15DA16EA1A3
:104A000088A50E946C1FA7CD81E080931E06FECD75
:104A100081E080931F0603CE81E08093200642CE82
:104A200081E08093210647CE0E948305069708F017
:104A300094CE80912C0690912D0620912A063091DB
:104A40002B06822B932B2091260630912706822B52
:104A5000932B2091280630912906822B932B892BAA
:104A600009F06FC040913F065091400660914106A9
:104A700070914206CB01AA27BB270097A105B1057B
:104A800009F484C0AC01BD0180E1052F162F272F4A
:104A90003327011511052105310519F0885FB9018A
:104AA000A8018A019B01F4E0369527951795079593
:104AB000FA95D1F7011511052105310519F08C5F23
:104AC000B901A8018A019B01E2E036952795179567
:104AD0000795EA95D1F7011511052105310519F062
:104AE0008E5FB901A8017695679557954795452B37
:104AF000462B472B09F08F5F813009F44DC0882386
:104B000009F446C0823009F44CC020E042C087FF5F
:104B100004C0F9A5F160F9A78CCF29A52E7F29A79C
:104B200088CFC8010E9483058035934C08F480CE5D
:104B30000E94120F90932F0680932E06A3019201DC
:104B40008BCE6CE276E085E296E00E94A50A6AE2EE
:104B500076E084E296E00E94A50A68E276E083E2CD
:104B600096E00E94A50A66E276E082E296E00E9464
:104B7000A50AF0912506FEA7209124062FA74091B3
:104B8000230648AB8091220689AB53CF80E07DCFCE
:104B900020E540E060E003C020E04FE569E980E007
:104BA00004C020E040E061E789E90E94C10D8091E6
:104BB0003F0690914006A0914106B09142060097B1
:104BC000A105B10509F473C0B695A795979587958A
:104BD00080FF6DC081E080933E0699A59A8FEEA577
:104BE000EB8FFFA5FC8F28A92D8F49A94E8F86E05A
:104BF000FE017996D10101900D928A95E1F786E048
:104C0000F101A2E3B6E001900D928A95E1F786E00A
:104C1000E2E3F6E0DE01179601900D928A95E1F746
:104C200086E0FE013796D10101900D928A95E1F759
:104C300086E0F101DE011D9601900D928A95E1F763
:104C40000E94900B882309F43FC03F8528899A89E8
:104C500089891F86188A1A8A198A40913E0641114D
:104C600029C03F87288B3F85288999898A89709137
:104C70003A0660913B0640913C0650913D06FE8508
:104C8000E0913906FE1319C0332311F0731315C0D8
:104C9000222311F0621311C0882311F058130DC0A4
:104CA000992319F081E0491309C080E007C01092F0
:104CB0003E0693CF9A8B898BD6CF81E080FF04C0CC
:104CC000CE010D960E94C5061F86188A198A1A8A77
:104CD00086E0FE013D96A8E3B6E001900D928A952C
:104CE000E1F786E0FE013D96D10101900D928A9593
:104CF000E1F786E0F101A2E3B6E001900D928A951A
:104D0000E1F70E94D30690914306891709F4E6CB98
:104D10000E94D30680934306E1CB09BD19BD09B4B7
:104D200000FEFDCF8091D8008F7D8093D8008091C8
:104D3000E00082608093E0008091E00081FDFCCF84
:104D40000E94600F3BCE2D32314008F07DCCB3CCB9
:104D5000232B09F02DCC63CC1F921FB61F92112478
:104D60008F939F93AF93BF9380910D06811113C0D2
:104D70008091EE059091EF05A091F005B091F105BD
:104D80004196A11DB11D8093EE059093EF05A09370
:104D9000F005B093F105BF91AF919F918F911F9056
:104DA0001FBE1F9018951F93CF93DF93EC01162F12
:104DB0008F8180FF0BC088819091050680FF12C013
:104DC00091609093050686950E94100D8F8181FF5A
:104DD0001DC0212F4B816A818981DF91CF911F9165
:104DE0000C94BE0B9E7F9093050680910406816013
:104DF000809304062FEF80E792E02150804090409E
:104E0000E1F700C000000E945B0BE0CFDF91CF9183
:104E10001F91089525E0E5E0F6E0DC0101900D9298
:104E20002A95E1F72091020630910306409104068D
:104E3000FC01258336834783089510920406089564
:104E400080910406089562E070E084E691E00C949D
:104E5000492962E070E084E691E00C9452290E94B6
:104E60002027882361F081E796E00E940A2781E0ED
:104E700090E00E942B2A892B11F40C941D27089591
:104E800080917006883039F460E081E796E00E94F6
:104E9000D326109270060895CF93DF93D62FC72F95
:104EA0000E942F2790E080E00E942B2A0097E9F4CF
:104EB000ED2FFC2FDC01A459B94F2C9121930196C1
:104EC00084309105B9F70E94B60E6E5F7F4F8F4F09
:104ED0009F4F609368067093690680936A0690936B
:104EE0006B0681E0DF91CF91089580E0FBCFCF93F7
:104EF000DF93D62FC72F0E944027609168067091DC
:104F0000690680916A0690916B060E94D10EED2F82
:104F1000FC2F90E080E02191DC01A459B94F2C9343
:104F2000019684309105B9F7DF91CF9108951092E1
:104F3000B9008CE08093B8000895EF92FF920F9330
:104F40001F93CF93DF93182FEB011092BC0084EADC
:104F50008093BC000E94120F7C018091BC0087FFEF
:104F600027C08091B900887F883029F08091B900EE
:104F7000887F8031D9F51093BB0084E88093BC0012
:104F80000E94120F8C018091BC0087FF24C02091E9
:104F9000B900287F90E080E02831B1F081E090E016
:104FA000203411F490E080E09195819591090CC036
:104FB000CF3FDC0791F20E94120F8E199F098C17C8
:104FC0009D0758F28EEF9FEFDF91CF911F910F91C8
:104FD000FF90EF900895CF3FDC07A9F20E94120FD7
:104FE000801B910B8C179D0770F2ECCF8FEF9FEF1A
:104FF000EBCF0F931F93CF93DF93EB018093BB0015
:1050000084E88093BC000E94120F8C018091BC0048
:1050100087FF11C02091B900287F81E090E02832FD
:1050200011F490E080E0919581959109DF91CF9105
:105030001F910F910895CF3FDC0741F30E94120F9B
:10504000801B910B8C179D0708F38EEF9FEFEECF1F
:105050000F931F93CF93DF93EC0184EC8093BC00FC
:105060000E94120F8C018091BC0087FF08C08091C4
:10507000BB0090E0DF91CF911F910F910895CF3F3A
:10508000DC0789F30E94120F801B910B8C179D0780
:1050900050F38EEF9FEFEECF0F931F93CF93DF93DD
:1050A000EC0184E88093BC000E94120F8C01809177
:1050B000BC0087FF08C08091BB0090E0DF91CF91DA
:1050C0001F910F910895CF3FDC0789F30E94120FC3
:1050D000801B910B8C179D0750F38EEF9FEFEECF47
:1050E000CF92DF92EF92FF920F931F93CF93DF93B4
:1050F0006B018A017901B9010E949D27E6010C0D1F
:105100001D1DC017D10761F424E92093BC00DF9175
:10511000CF911F910F91FF90EF90DF90CF90089566
:1051200097FDF2CFB70189910E94F927EACFCF927C
:10513000DF92EF92FF920F931F93CF93DF93F82E9E
:10514000E62EEA016901B8010E949D2797FD15C06E
:10515000B8018E2D0E94F92797FD0FC0B8018F2D41
:1051600081600E949D27F12CE12C21E0C21AD10818
:10517000EC14FD0400F597FF11C024E92093BC0056
:105180001816190614F490E080E0DF91CF911F917A
:105190000F91FF90EF90DF90CF900895C8010E948B
:1051A000282897FD04C0FE01EE0DFF1D80832FEF20
:1051B000E21AF20ADDCF97FDE0CFC8010E944C2829
:1051C00097FDDBCFCC0DDD1D8883D7CF8EE14A9BC9
:1051D00002C08150E1F74A9BFECF08955A9880E2C1
:1051E0008A95F1F75A9A0895FC013BE03A95F1F758
:1051F00020E090E080E031E040E14A95F1F7880F4F
:105200004A9B02C08160232742E04A95F1F70000E3
:1052100040E14A95F1F79F5F6913EECF90E19A95CF
:10522000F1F799B132E03A95F1F7000040E14A9583
:10523000F1F792FB992790F992272081920F9083A2
:105240000895EF92FF920F931F93CF93DF930F92E6
:10525000CDB7DEB719828C017C01E60EF11C0E156C
:105260001F0561F481E09981911180E00F90DF9139
:10527000CF911F910F91FF90EF9008950E94E62823
:1052800068E0CE0101960E94F428F80181938F0115
:10529000E6CF90937B0680937A0660937906529AC4
:1052A0005A9A089590937B0680937A0660937906C4
:1052B00052985A9AEA9AE9E6F0E080818F7C8083DE
:1052C00008956150770B91E001C0990F6A95EAF754
:1052D00020E031E0911108C0222391F05A9A80E237
:1052E0008A95F1F75A980895492F482339F05A9A28
:1052F000232740E24A95F1F79695ECCF5A98F9CFDB
:105300005A98EDCFFF920F931F93CF93DF93EC0149
:105310008C01060F111DC017D10731F4DF91CF9119
:105320001F910F91FF900895F9900E94EE2868E078
:105330008F2D0E946129EFCF1F920F920FB60F920F
:1053400011240F931F932F933F934F935F936F936A
:105350007F938F939F93AF93BF93EF93FF93CF93DD
:10536000DF930F92CDB7DEB719820E94E62867E07F
:10537000CE0101960E94F428082F06950695069501
:10538000982F92959570202F2570920F292F2370BA
:10539000969596958770920F891344C089818111E3
:1053A00041C0809179068017E8F120E12A95F1F754
:1053B0005A9A529A82E08A95F1F700C0A8E00A9FB3
:1053C000C001112400917A0610917B06080F191F65
:1053D0005A98F8016581662321F0868197810E94A1
:1053E00082290E94EE28F0E1FA95F1F75A98529836
:1053F0005A9A20E12A95F1F7D80112966C911297EA
:10540000662331F113968D919C910E942129D80138
:10541000ED91FC91882311F088E001C082E0808347
:105420000E94E6280F90DF91CF91FF91EF91BF91FD
:10543000AF919F918F917F916F915F914F913F912C
:105440002F911F910F910F900FBE0F901F901895E5
:10545000ED91FC91E1CF0F931F93CF93DF932091B8
:105460007906281719060CF471C08C0193E0000F1F
:10547000111F9A95E1F7C0917A06D0917B06C00F73
:10548000D11FF894529A5A9825E02A95F1F7000016
:10549000982F969595708570980F892F83709695A3
:1054A0009695980F092B0E94EE2800C067E0802F88
:1054B0000E94612980E18A95F1F752985A9A4A9B95
:1054C00017C087E090E04A9915C06D81662321F1ED
:1054D0008E819F810E94212981111EC0529A5A9A61
:1054E000E881F98182E08083789482E090E00DC0C9
:1054F00000C0E5CF019771F4529A5A9AE881F98178
:1055000081E08083789481E090E0DF91CF911F91DA
:105510000F91089500C0D7CF0E94E62820E22A9577
:10552000F1F75A98529A80E18A95F1F76A816623D9
:1055300021F08B819C810E9482290E94EE28E881C3
:10554000F9811082789490E080E0DFCF84E090E0F1
:10555000DCCFAA1BBB1B51E107C0AA1FBB1FA617AC
:10556000B70710F0A61BB70B881F991F5A95A9F70C
:1055700080959095BC01CD01089597FB072E16F4F8
:10558000009407D077FD09D00E94A92A07FC05D016
:105590003EF4909581959F4F0895709561957F4F4A
:1055A0000895EE0FFF1F0590F491E02D09942F92BE
:1055B0003F924F925F926F927F928F929F92AF92A3
:1055C000BF92CF92DF92EF92FF920F931F93CF93F0
:1055D000DF93CDB7DEB7CA1BDB0B0FB6F894DEBF87
:1055E0000FBECDBF09942A88398848885F846E84AD
:1055F0007D848C849B84AA84B984C884DF80EE80F7
:10560000FD800C811B81AA81B981CE0FD11D0FB6FF
:10561000F894DEBF0FBECDBFED010895F999FECF1E
:1056200092BD81BDF89A992780B50895A6E1B0E0B2
:1056300044E050E00C94482BA8E1B0E042E050E098
:105640000C94482B262FF999FECF92BD81BDF89A74
:10565000019700B4021639F01FBA20BD0FB6F894B6
:10566000FA9AF99A0FBE08950396272F0E94232BCA
:105670000E94222B252F0E94232B242F0C94232BB6
:105680000196272F0E94232B0C94222BDC01CB01A7
:10569000FC01F999FECF06C0F2BDE1BDF89A319642
:1056A00000B40D9241505040B8F708955058BB27B0
:1056B000AA270E946E2B0C94842D0E944B2D38F04B
:1056C0000E94522D20F039F49F3F19F426F40C94D7
:1056D000212D0EF4E095E7FB0C941B2DE92F0E9481
:1056E000A92D58F3BA17620773078407950720F0AE
:1056F00079F4A6F50C94CB2D0EF4E0950B2EBA2F71
:10570000A02D0B01B90190010C01CA01A0011124C7
:10571000FF27591B99F0593F50F4503E68F11A1673
:10572000F040A22F232F342F4427585FF3CF469504
:1057300037952795A795F0405395C9F77EF41F1626
:10574000BA0B620B730B840BBAF09150A1F0FF0FF0
:10575000BB1F661F771F881FC2F70EC0BA0F621FDC
:10576000731F841F48F4879577956795B795F795CC
:105770009E3F08F0B0CF9395880F08F09927EE0F61
:105780009795879508950E944B2D60F080E891E0F1
:1057900009F49EEF0E94522D28F040E851E071F488
:1057A0005EEF0CC00C94212D0C94CB2DE92FE078EA
:1057B0000E94A92D40F3092E052AB1F326173707B9
:1057C0004807590738F00E2E07F8E02569F0E02564
:1057D000E0640AC0EF6307F8009407FADB01B9013F
:1057E0009D01DC01CA01AD01EF930E944D2C0E9486
:1057F000842D0E94062C5F91552339F02BED3FE05C
:1058000049E450FD49EC0C94572B0895DF93DD27B4
:10581000B92FBF7740E85FE31616170648075B0706
:1058200018F4D92F0E94D72D9F938F937F936F9356
:105830000E94EA2EECEAF0E00E94242D0E94842DC2
:105840002F913F914F915F910E94F22DDD2351F0F6
:105850009058A2EA2AED3FE049EC5FE3D0785D275B
:105860000E946E2BDF910C94842D0E945B2DE3959A
:105870000C94952D0E94522D58F00E944B2D40F013
:1058800029F45F3F29F00C941B2D51110C94CC2D61
:105890000C94212D0E94A92D68F39923B1F355236F
:1058A00091F3951B550BBB27AA2762177307840733
:1058B00038F09F5F5F4F220F331F441FAA1FA9F3C9
:1058C00035D00E2E3AF0E0E832D091505040E695B7
:1058D000001CCAF72BD0FE2F29D0660F771F881F18
:1058E000BB1F261737074807AB07B0E809F0BB0B0B
:1058F000802DBF01FF2793585F4F3AF09E3F51051F
:1059000078F00C941B2D0C94CC2D5F3FE4F3983E63
:10591000D4F3869577956795B795F7959F5FC9F707
:10592000880F911D9695879597F90895E1E0660F88
:10593000771F881FBB1F621773078407BA0720F001
:10594000621B730B840BBA0BEE1F88F7E09508956A
:105950000E94AF2C6894B1110C94CC2D08950E9434
:10596000B12D88F09F5798F0B92F9927B751B0F013
:10597000E1F0660F771F881F991F1AF0BA95C9F7D3
:1059800014C0B13091F00E94CB2DB1E008950C9479
:10599000CB2D672F782F8827B85F39F0B93FCCF32C
:1059A000869577956795B395D9F73EF49095809550
:1059B000709561957F4F8F4F9F4F0895E89409C070
:1059C00097FB3EF490958095709561957F4F8F4F32
:1059D0009F4F9923A9F0F92F96E9BB279395F69548
:1059E000879577956795B795F111F8CFFAF4BB0FC6
:1059F00011F460FF1BC06F5F7F4F8F4F9F4F16C02A
:105A0000882311F096E911C0772321F09EE8872FB3
:105A1000762F05C0662371F096E8862F70E060E06F
:105A20002AF09A95660F771F881FDAF7880F9695E8
:105A3000879597F9089597F99F6780E870E060E08F
:105A400008959FEF80EC0895DF93CF931F930F93FA
:105A5000FF92EF92DF927B018C01689406C0DA2EF0
:105A6000EF010E94F22DFE01E894A5912591359158
:105A700045915591A6F3EF010E946E2BFE0197010F
:105A8000A801DA9469F7DF90EF90FF900F911F91D2
:105A9000CF91DF91089500240A9416161706180670
:105AA0000906089500240A94121613061406050622
:105AB00008950C94212D0E94B12DD8F3E894E0E0D4
:105AC000BB279F57F0F02AED3FE049EC06C0EE0FF0
:105AD000BB0F661F771F881F28F0B23A6207730753
